:020000040800F2
:10000000F80E002009250008112500081325000816
:100010001525000817250008192500080000000014
:100020000000000000000000000000001B25000888
:100030001D250008000000001F25000821140008ED
:100040002325000823250008232500082325000870
:100050002325000823250008232500082325000860
:100060002325000823250008232500082325000850
:100070002325000823250008232500082325000840
:10008000232500082325000823250008291400083B
:100090002B14000823250008232500082325000829
:1000A0002325000823250008232500082325000810
:1000B0002325000823250008232500082325000800
:1000C00023250008232500082325000823250008F0
:1000D00023250008191400082325000823250008FB
:1000E000232500082325000823250008DFF80CD06D
:1000F00007F0FEF90048004717010008F80E00203D
:1001000010B5012145F21D2002F06EFC012130489E
:1001100002F077FC10BDFFF7F3FF4FF4407002F0E0
:10012000C7FC01F0C8F900F051FE01F091FE01F0AA
:10013000B1FB01F022FB274908700846007858B14E
:1001400001F0F0F901F0EEF90021022001F0E7FAE8
:1001500000202149087102E001201F49087101F0C7
:10016000E1F901F065FE01F0D7FF01F08CF81B48C2
:1001700000684FF4FA72B0FBF2F1B1F1807F00D366
:100180001DE021F07F40401E4FF0E02250615017EB
:100190000F22002807DA13071D0E114B00F00F0481
:1001A000241F1D5503E013071C0E0E4B1C5400BFEB
:1001B00000204FF0E02290610720106100BF00F0A6
:1001C00093FB01F0AFF901E000F05CF8FCE7000000
:1001D0000200240000000020E40600207C00002033
:1001E00018ED00E000E400E010B53848007820B1D8
:1001F00000213748008800F08BFD10BD10B502F0DB
:1002000052F810BD10B501F0A9FF32480068401C3B
:100210003049086010BD10B500F066FB10BD10B588
:1002200000F0A6FA10BD10B52B480088012804DBA9
:10023000FFF7F5FF00202849088028480088022899
:1002400004DBFFF7E8FF00202449088024480088E9
:10025000052804DBFFF7D6FF00202149088021484C
:1002600000880A2804DBFFF7C9FF00201D49088029
:100270001D480088192804DBFFF7B6FF00201A4943
:10028000088010BD10B514480088401C1249088031
:1002900012480088401C1149088011480088401C01
:1002A0000F4908800F480088401C0E4908800E48FE
:1002B0000088401C0C4908800C480088401C0B49F1
:1002C0000880FFF7B0FF10BD704700003800002025
:1002D0003000002048000020020000200400002020
:1002E00006000020080000200A0000200C0000206A
:1002F000B0F9041040F2D252914208DDB0F9041076
:1003000040F2E652914202DA40F2DC518180B0F9CB
:10031000061040F2D252914208DDB0F9061040F2C8
:10032000E652914202DA40F2DC51C180B0F902108B
:1003300040F2D252914208DDB0F9021040F2E6528A
:10034000914202DA40F2DC5141807047B0F900106E
:10035000B1F57A7F02DC4FF47A7101E0B0F9001058
:100360000180B0F90010B1F5FA6F02DB4FF4FA61C9
:1003700001E0B0F900100180B0F90410B1F57A7F06
:1003800002DC4FF47A7101E0B0F904108180B0F919
:100390000410B1F5FA6F02DB4FF4FA6101E0B0F935
:1003A00004108180B0F90610B1F57A7F02DC4FF4B9
:1003B0007A7101E0B0F90610C180B0F90610B1F50C
:1003C000FA6F02DB4FF4FA6101E0B0F90610C18068
:1003D000B0F90210B1F57A7F02DC4FF47A7101E0D6
:1003E000B0F902104180B0F90210B1F5FA6F02DBEA
:1003F0004FF4FA6101E0B0F902104180B0F9081041
:10040000B1F57A7F02DC4FF47A7101E0B0F908109F
:100410000181B0F90810B1F5FA6F02DB4FF4FA610F
:1004200001E0B0F908100181B0F90A10B1F57A7F46
:1004300002DC4FF47A7101E0B0F90A104181B0F9A1
:100440000A10B1F5FA6F02DB4FF4FA6101E0B0F97E
:100450000A104181B0F90C10B1F57A7F02DC4FF43B
:100460007A7101E0B0F90C108181B0F90C10B1F58E
:10047000FA6F02DB4FF4FA6101E0B0F90C108181F0
:100480007047FE490A68091DFD4B1B7831F81310AF
:10049000511AFA4A1160FB490A68091DF84B1B788A
:1004A00031F81310511AF74A1160F7490A68091D0B
:1004B000F34B1B7831F81310511AF34A1160F349CA
:1004C0000A68091DEE4B1B7831F81310511AEF4AD8
:1004D0001160EF490A68091DE94B1B7831F81310C8
:1004E000511AEB4A1160EB490A68091DE44B1B786D
:1004F00031F81310511AE74A1160E7490A68091DDB
:10050000DF4B1B7831F81310511AE34A1160018850
:100510008AB2DA49091DDA4B1B7821F81320418889
:100520008AB2D849091DD64B1B7821F81320C188FF
:100530008AB2D549091DD24B1B7821F81320818836
:100540008AB2D249091DCE4B1B7821F813200189AC
:100550008AB2CF49091DCA4B1B7821F81320818923
:100560008AB2CC49091DC64B1B7821F81320018A99
:100570008AB2C949091DC24B1B7821F81320BF4913
:100580000A68091DBE4B1B7831F813101144BB4A91
:100590001160BC490A68091DB94B1B7831F813106A
:1005A0001144B84A1160B8490A68091DB44B1B7858
:1005B00031F813101144B44A1160B4490A68091D96
:1005C000AF4B1B7831F813101144B04A1160B04999
:1005D0000A68091DAA4B1B7831F813101144AC4A64
:1005E0001160AC490A68091DA54B1B7831F813103E
:1005F0001144A84A1160A8490A68091DA04B1B783C
:1006000031F813101144A44A11609C4909680A2268
:10061000B1FBF2F109B201809A490968B1FBF2F12C
:1006200009B2418098490968B1FBF2F109B2C18071
:1006300096490968B1FBF2F109B2818094490968D1
:10064000B1FBF2F109B2018192490968B1FBF2F103
:1006500009B2818190490968B1FBF2F109B20182C6
:1006600087490978491C864A1170114609780A2978
:1006700001D100211170704710B5044687484078B9
:10068000002873D08648007890B900208349C8803C
:1006900008818880488001208149087000208149B4
:1006A000086081490860814908608149086010BD7F
:1006B0007B480078401C7A490870B4F900007949F9
:1006C0000968084477490860B4F902007649096866
:1006D000084475490860B4F904007449096808447D
:1006E00072490860B4F90600714909680844704904
:1006F00008606B480078332838D169480078401E7C
:100700006749087067480068097890FBF1F0A0F528
:100710007A706249C880644800686149097890FB32
:10072000F1F0A0F2DC5080B25C49088108825F4899
:1007300000685B49097890FBF1F0A0F2DC5080B2D0
:1007400056498880C8815A4800685549097890FB05
:10075000F1F0A0F2DC5080B250494880888100203E
:100760004F4908704D49487000F01CFB00BF9EE7E0
:100770002DE9F0474F49488806F060FD05464FF0E7
:100780007A5106F063FB044606F06EFD00F57A70C0
:100790004249C988401A00B2474908804549C8887B
:1007A00006F04CFD05464FF07A5106F04FFB04462B
:1007B00006F05AFD00F57A7038498988401A00B26F
:1007C0003D4988803B49088806F038FD05464FF0D2
:1007D0007A5106F03BFB044606F046FDC0F5FA6090
:1007E0002E490989401A00B2334948803149888826
:1007F00006F024FD05464FF07A5106F027FB04462B
:1008000006F032FD00F57A7024494988401A00B29A
:100810002949C8802148408800F2DC5000B2088194
:100820001E48808800F2DC5000B288812149088A85
:1008300006F004FD80461F49C88906F0FFFC81468A
:100840004FF0804106F002FB0746414606F030FBC0
:1008500006461A4906F0FAFA0546194906F0F6FA6C
:10086000044606F001FD2C3000B213490882084608
:10087000FFF707FE1048FFF7FFFE23E0E00100202E
:10088000100000202802002010020020F8010020A3
:10089000400200207002002088020020D2020020C6
:1008A0001100002014000020180000201C0000206F
:1008B0002000002044090020CA0100209A99993F95
:1008C0000000C8420348FFF741FD0248FFF710FD52
:1008D000BDE8F087CA01002070B504460D462946E0
:1008E000204600F0DDFE70BD70B50024AA2221462E
:1008F000641CFE484254AF222146641C4254032229
:100900002146641C425400222146641C4254F8488B
:1009100042782146641CF5484254F5480278214645
:10092000641CF2484254F248C2782146641CEF48E5
:100930004254EF4882782046611CCCB2EB490A54FD
:10094000EB48C2792046611CCCB2E8490A54E84819
:1009500082792046611CCCB2E4490A54E4484279C9
:100960002046611CCCB2E1490A54E1480279204694
:10097000611CCCB2DD490A54DD48427A2046611C34
:10098000CCB2DA490A54DA48027A2146601CC4B271
:10099000D6484254D648C27A2046611CCCB2D349CC
:1009A0000A54D348827A2046611CCCB2CF490A54FB
:1009B000CF48427B2046611CCCB2CC490A54CC487B
:1009C000027B2046611CCCB2C8490A54C848C27B8D
:1009D0002046611CCCB2C5490A54C548827B2046DA
:1009E000611CCCB2C1490A54C148427C2046611CFA
:1009F000CCB2BE490A54BE48027C2046611CCCB22F
:100A0000BA490A54BA48C27C2046611CCCB2B749E4
:100A10000A54B748827C2046611CCCB2B3490A54C0
:100A2000201FC8700025002005E0B049095C29445A
:100A3000CDB2411CC8B2A042F7DB2046611CCCB24B
:100A4000AA490D5414200870002081F82000214686
:100A5000A648FFF741FF70BD70B50024AA222146C9
:100A6000641CA24842542146641C4254032221467D
:100A7000641C425400222146641C42549C48427823
:100A80002146641C99484254994802782146641CC6
:100A9000964842549648C2782146641C9348425472
:100AA000934882782046611CCCB290490A54904801
:100AB000C2792046611CCCB28C490A548C48827998
:100AC0002046611CCCB289490A54894842792046A3
:100AD000611CCCB285490A54854802792046611CC4
:100AE000CCB282490A548248427A2046611CCCB278
:100AF0007E490A547E48027A2046611CCCB27B496A
:100B00000A547B48C27A2146601CC4B277484254DA
:100B10007748827A2046611CCCB274490A547448E2
:100B2000427B2046611CCCB270490A547048027B5B
:100B30002046611CCCB26D490A546D48C27B2046E8
:100B4000611CCCB269490A546948827B2046611C09
:100B5000CCB266490A546648427C2046611CCCB23D
:100B600062490A546248027C2046611CCCB25F494B
:100B70000A545F48C27C2046611CCCB25B490A54CF
:100B80005B48827C2046611CCCB258490A54201F25
:100B9000C8700025002005E05449095C2944CDB205
:100BA000411CC8B2A042F7DB2046611CCCB24F49C1
:100BB0000D5421464D4801F060F901F070F970BD07
:100BC0002DE9F047044689464FF0000A002005E071
:100BD000215C514401F0FF0A411CC8B2A9F1010196
:100BE0008142F5DC04EB090010F8010C504501D0FE
:100BF000BDE8F0872078AA2802D16078AA2800D022
:100C0000F6E7A07801284CD12179090209B262796E
:100C100041EA020006F017FB0746364A364B06F05B
:100C20002CFA054606F034FB34490861A179090223
:100C300009B2E27941EA020006F005FB07462D4AB7
:100C40002D4B06F01AFA054606F022FB2B494861A7
:100C5000217A090209B2627A41EA020006F0F3FA47
:100C60000546244A244B06F008FA074606F010FB16
:100C700022498861A17A0906E27A41EA0241227B8F
:100C800041EA0221627B41EA020006F0DCFA0546F5
:100C90001B4A1C4B06F0F1F9074606F0F9FA174912
:100CA000C861A07805281ED12079617941EA002029
:100CB00012494881207A0870607A4871A07AE17AF6
:100CC00041EA00200D498881207B617B41EA0020B8
:100CD0000A49C8810846C0890B490988884202D15F
:100CE00000200A49087000BF82E70000A00200202F
:100CF000CA0100209A9999999999B93FE406002070
:100D00007B14AE47E17A843F300000203800002099
:100D10002DE9F84306460F460024A046AA222146A4
:100D2000641C1F484254AF222146641C4254F122E5
:100D30002146641C425400222146641C4254009601
:100D40009DF801202146641C42549DF80020214654
:100D5000641C425400979DF801202146641C4254B3
:100D60009DF800202046611CCCB20D490A54201F7A
:100D7000C870002506E00A48405D404400F0FF08C6
:100D8000681CC5B2A542F6DB2046611CCCB2044902
:100D900001F8008020210248FFF79EFDBDE8F8839E
:100DA000A002002010B512210E4801F080F910BDFC
:100DB00010B500200B490870487048808880088171
:100DC000C88044204881FFF7EDFF10BD10B5122107
:100DD000044801F04DF903484089442801D0FFF749
:100DE000E7FF10BDD202002010B50A4622B14FF431
:100DF0008053FB4C236004E04FF48053F84C241DD7
:100E00002360002119E04FF40053F54C241D2360AA
:100E100000F0800323B14FF40043241F236004E05B
:100E20004FF40043EE4C241D23604FF40053EC4C70
:100E300023604306180E4B1CD9B20829E3DB4FF49C
:100E40008053E74C236010BD30B500241CE004F152
:100E5000B001C8B20021FFF7C7FF00210846FFF725
:100E6000C3FF00211020FFF7BFFF002508E0DD4988
:100E700001EBC501085D0121FFF7B6FF681CC5B293
:100E8000802DF4DB601CC4B2082CE0DB30BD00B563
:100E900000218D20FFF7A8FF00211420FFF7A4FFF9
:100EA0000021AF20FFF7A0FF00BD00B500218D207D
:100EB000FFF79AFF00211020FFF796FF0021AE20D8
:100EC000FFF792FF00BD30B500240CE0002506E0DE
:100ED0000020C44901EBC5010855681CC5B2802D2E
:100EE000F6DB601CC4B2082CF0DBFFF7ADFF30BDB1
:100EF000F0B5144600267F2801DC3F2900DDF0BD57
:100F00000B46CF1701EB5777FF10C7F10707FAB26F
:100F1000CF1701EB5777FF10A1EBC707FDB2C5F163
:100F200007070123BB40DEB24CB1AE4B03EBC0035D
:100F30009B5C3343AB4F07EBC007BB5408E0A94BA6
:100F400003EBC0039B5CB343A64F07EBC007BB5446
:100F500000BFD4E72DE9F04F80460C4615461E46EB
:100F6000A346A5F12000C5B200273EE00C2E07D114
:100F700005EB45009C4901EB800010F8079004E068
:100F80009A4800EB051010F807904FF0000A26E091
:100F900009F0800028B121464046099AFFF7A8FFD2
:100FA00009E0099808B9012000E000200246214626
:100FB0004046FFF79DFF4FEA49604FEA1069601C09
:100FC000C4B2A4EB0B00B04205D15C4608F10100AD
:100FD00000F0FF0806E00AF1010000F0FF0ABAF194
:100FE000080FD5DB00BF781CC7B2B742BEDBBDE837
:100FF000F08F2DE9F04F07460C4690461D46A3465C
:10100000002634E008EB4800794901EB800010F835
:1010100006904FF0000A24E009F0800028B1214634
:101020003846099AFFF764FF09E0099808B90120DA
:1010300000E00020024621463846FFF759FF4FEAFC
:1010400049604FEA1069601CC4B2A4EB0B00A842CF
:1010500003D15C46781CC7B206E00AF1010000F03B
:10106000FF0ABAF1080FD7DB00BF701CC6B2AE4250
:10107000C8DBBDE8F08F2DE9F84306460F4614465D
:101080001D46DDF82090012000906006020E2B46E0
:1010900039463046FFF7ADFF0120A84605EBD87171
:1010A00006EB61010090C8B2012101EB4401CAB214
:1010B0002B463946FFF79DFFBDE8F8832DE9F04F39
:1010C00007460C4690461D46A34600262FE018F81A
:1010D00006904FF0000A24E009F0800028B1214674
:1010E0003846099AFFF704FF09E0099808B901207A
:1010F00000E00020024621463846FFF7F9FE4FEA9D
:1011000049604FEA1069601CC4B2A4EB0B00A8420E
:1011100003D15C46781CC7B206E00AF1010000F07A
:10112000FF0ABAF1080FD7DB00BF701CC6B2AE428F
:10113000CDDBBDE8F08F10B50246012000E0504342
:101140000B00A1F10104E1B2F9D110BD2DE9FF4F6F
:1011500081B0074691461E460E9D4FF0000A0024BE
:1011600039E0301B401EC1B20A20FFF7E4FFB9FB93
:10117000F0F00A21B0FBF1F201FB1208BAF1000F06
:1011800016D1701EA04213DDB8F1000F0ED1012060
:10119000AB4605EBDB71491001FB04710090C8B24E
:1011A0002B4620220299FFF7D5FE12E04FF0010AEC
:1011B0000120AB4605EBDB71491001FB0471009087
:1011C000C8B208F13001CAB22B460299FFF7C2FE3D
:1011D00000BF601CC4B2B442C3DB05B0BDE8F08FF1
:1011E000100C0140E4020020B47C000828810008B3
:1011F000188700082DE9F84105460E4614461F469B
:10120000DDF81C8018E07A2D03DD002506F11000C2
:10121000C6B23A2E04DD002005460646FFF753FE0F
:10122000CDF8008022783B4631462846FFF792FEF3
:1012300005F10800C5B2641C20780028E3D1BDE8A0
:10124000F88178B505460E46144618E07A2D03DD80
:10125000002506F11000C6B23A2E04DD0020054636
:101260000646FFF730FE0120009022781023314619
:101270002846FFF76FFE05F10800C5B2641C207810
:101280000028E3D178BD08B50121082001F0ACFBAE
:101290004FF42040ADF8000010208DF8030003202B
:1012A0008DF8020069464B4801F0AEFF4FF4204133
:1012B000484802F056F84FF4A040ADF80000102066
:1012C0008DF8030003208DF802006946414801F0C3
:1012D0009BFF4FF480413F4802F043F84FF48040B9
:1012E0003C49143108604FF47A7000F084F84FF4F0
:1012F00080403849103108600021AE20FFF774FDAE
:1013000000210846FFF770FD00211020FFF76CFD5B
:1013100000214020FFF768FD00218120FFF764FDD8
:101320000021CF20FFF760FD0021A120FFF75CFD29
:101330000021C020FFF758FD0021A620FFF754FD33
:101340000021A820FFF750FD00213F20FFF74CFDB2
:101350000021D320FFF748FD00210846FFF744FD98
:101360000021D520FFF740FD00218020FFF73CFD44
:101370000021D920FFF738FD0021F120FFF734FDCF
:101380000021DA20FFF730FD00211220FFF72CFDAD
:101390000021DB20FFF728FD00213020FFF724FD8E
:1013A00000212020FFF720FD00210220FFF71CFD77
:1013B00000218D20FFF718FD00211420FFF714FDF8
:1013C000FFF781FD0021AF20FFF70EFD002002494D
:1013D000887008BD000C0140E406002000B585B00F
:1013E000684601F094FA0A490098B0FBF1F0094907
:1013F000086005B000BD01B502E00098401E0090F5
:1014000000980028F9D108BD10B5FEF73BFF10BDCC
:1014100040420F004400002010B500F05BFB10BDFF
:1014200010B5FFF7F1FF10BD704710B505F06EFA6B
:1014300010BD000000B587B00121084601F0E1FAB7
:101440000121084601F0D0FA0121654801F0ADFF05
:1014500040F2CF70ADF814004720ADF81000002026
:10146000ADF81600ADF8120004A94FF0804002F06C
:1014700073FA6020ADF800000120ADF802000020F2
:10148000ADF80600ADF8080069464FF0804002F064
:101490007AFB0821C80602F00AFF0121880702F042
:1014A000B7FE0121880702F0B3FD00204FF0804114
:1014B000888707B000BD08B50121084601F094FAFD
:1014C0000121182001F090FA10208DF8030003206C
:1014D0008DF802004FF40070ADF8000069464148F5
:1014E00001F092FE0220ADF8000003208DF802000A
:1014F00010208DF8030069463A4801F085FE10205F
:101500008DF8030002208DF802004002ADF80000C3
:101510006946344801F078FE4FF48061314801F0AB
:1015200020FF08BD10B5002423E002212D4801F062
:101530001AFF4FF480612B4801F015FF4FF4007142
:10154000284801F010FF2848FFF755FF02212548E1
:1015500001F007FF4FF40071224801F002FF4FF441
:101560008061204801F0FDFE1F48FFF744FF601C2A
:10157000C4B2032CD9DB10BD2DE9F14F82B01B485A
:101580000168029805F00AFC1849086018491748D4
:10159000006805F0C9FE02D800201449086013480D
:1015A000006805F0ADFECDE9000106F02BFB80469A
:1015B0000022104B05F0BAFC064600224FF0804393
:1015C00005F0CDFD044600220B4B05F056FD82468A
:1015D00005F07DFE4FF080418887BDE8FE8F00005A
:1015E00000021800000C0140C02709004C00002038
:1015F000DB0FC9400000F03F003C9F4070B505463E
:101600000C4600F0D3F9284600F01EF906462046A5
:1016100000F01AF900F031F9304670BD70B504469B
:1016200000F0C4F9204600F00FF9FF2000F00CF99B
:10163000054600F022F9284670BD2DE9F041074625
:101640000D46164600F0B2F9384600F0FDF8804627
:10165000002404E0285D00F0F7F8601CC4B2B44236
:10166000F8DB00F00AF94046BDE8F0812DE9F041D1
:1016700007460D46164600F099F9384600F0E4F8A2
:101680008046002405E0FF2000F0DEF82855601CAD
:10169000C4B2B442F7DB00F0F0F84046BDE8F08198
:1016A00070B505460E46102000F06FF900F0EBF81B
:1016B00020222946A020FFF7C0FF00F07DF900BFDF
:1016C000594800680028FBD10720FFF7A7FF044610
:1016D00021462720FFF792FF04F0100028B1FF21D8
:1016E000E120FFF78BFF102070BD04F0200008B14F
:1016F0002020F9E7FF20F7E770B504460D4600F01B
:10170000C2F82A462146A820FFF797FF00F054F9B7
:1017100070BD10B500212520FFF770FF10BD70B51A
:1017200004460D4600F0AFF8052240492A20FFF795
:1017300084FF05223E493020FFF77FFF0121212051
:10174000FFF75CFF01212220FFF758FF1A21242018
:10175000FFF754FF00212520FFF750FF0F2126201F
:10176000FFF74CFF00F028F90E212020FFF746FF7D
:101770001021304801F0F5FD70BD1CB505222C4943
:101780003020FFF75AFF052269461020FFF76EFF51
:10179000002408E01DF804002549095D884200D0B6
:1017A00003E0601CC4B2052CF4DB00BF052C01D1A2
:1017B00001201CBD0020FCE710B50720FFF72EFF1D
:1017C000044604F0400000B36020FFF727FF1A49E9
:1017D000087008460078212813DA0846027817496D
:1017E0006120FFF743FF144801781448FFF7E8F938
:1017F00013480088401C12490880012011490870D4
:1018000003E0FF21E220FFF7F9FE04F0100030B101
:1018100004F0010018B1FF21E120FFF7EFFE21469F
:101820002720FFF7EBFE10BD2001214255000020CC
:1018300050000020000801405A000020040700204A
:101840005E0000206000002010B5044600BF0221A9
:101850005D4801F076FF0028F9D021465A4801F092
:101860001DFF00BF0121584801F06BFF0028F9D08F
:10187000554801F015FFC0B210BD10B510215348F6
:1018800001F06FFD10BD10B54FF400414F4801F05D
:101890006AFD10BD00B587B00121080301F0B1F861
:1018A00001210D2001F0A0F80121494801F07DFD42
:1018B0004FF00070474948608012ADF804000320E3
:1018C0008DF8060010208DF8070001A93F4801F0AF
:1018D0009BFC1020ADF8040003208DF806001020BA
:1018E0008DF8070001A9394801F08EFC4FF4807093
:1018F000ADF8040003208DF8060048208DF807009D
:1019000001A9324801F080FCE020ADF8040003207A
:101910008DF8060018208DF8070001A92B4801F06A
:1019200073FCE021294801F01CFD0021264801F04C
:1019300084FE0020ADF808004FF48270ADF80A0074
:101940000020ADF80C00ADF80E00ADF810004FF41B
:101950000070ADF812003820ADF814000020ADF88A
:1019600016000720ADF8180002A9174801F0C0FDC5
:10197000FFF789FFFFF781FF0121134801F05DFEAA
:10198000FF20FFF761FF07B000BD0F4909884FF640
:10199000C77211400C4A1180114609880143118019
:1019A0001146098841F040011180704710B510219F
:1019B000064801F0D8FC10BD10B54FF400410348B3
:1019C00001F0CFFC10BD00000030014000080140D4
:1019D000000230000000014010B588B0044601212B
:1019E000880301F001F80121084600F0FDFF012104
:1019F000042000F0F9FF4FF40070ADF8040003205C
:101A00008DF8060018208DF8070001A9A64801F0FE
:101A1000FBFB4FF48060ADF8040003208DF8060056
:101A200004208DF8070001A99F4801F0EDFB01217A
:101A3000042001F0BAFC04940020ADF81400ADF8C5
:101A40001600ADF81800ADF81C000C20ADF81A0017
:101A50000020ADF80800ADF80A004FF40070ADF8B2
:101A60000C000020ADF80E0004A9904802F0F1FD32
:101A700002A98E4802F062FE012240F225518B48F5
:101A800002F07FFE0121894802F06FFE25208DF8CB
:101A9000000005208DF8010001208DF802008DF86E
:101AA0000300684601F009F808B010BD08B57F488A
:101AB00002F08CFD002240F225517C4802F061FECC
:101AC00025208DF8000000208DF80300684600F006
:101AD000F4FF08BD10B50821744802F021FF10B1D1
:101AE000724802F0B3FE7148008800F08000F0B147
:101AF0006E480C30008800F08000C0B16C4801785E
:101B00000078401C6A4A10706A48405C6749091DA9
:101B100008801046007868490978884207D16348F0
:101B20000C30008820F0800060490C3108805F484C
:101B3000008800F0200000286DD05C48001D00885F
:101B4000C4B25E48007838B9AA2C05D101205B499F
:101B500008705B4804705DE058480078012807D1A0
:101B6000AA2C05D10220554908705548447051E00F
:101B700052480078022807D1F12C05DC03204F4998
:101B800008704F48847045E04C48007803280CD119
:101B9000FF2C0ADA0420494908704948C4704948B2
:101BA000047000204849087034E044480078042854
:101BB00019D144480078002815DD42480078401EBD
:101BC00040490870404800783F490978491C3E4A1E
:101BD0001170001D3A490C543A480078D0B90520DC
:101BE0003649087016E03548007805280FD10020E6
:101BF0003249087034480078001D31490C5432488D
:101C00000078401DC1B22E48FFF74AFD02E00020D7
:101C10002A49087000BF10BD10B504462648017857
:101C20000078401C244A107022484454012240F29B
:101C300027711E4802F0A5FD10BD10B504460FE047
:101C400020780D2802D1FFF7E7FF08E020780A2866
:101C500002D1FFF7E1FF02E02078FFF7DDFF641C0F
:101C600020780028ECD110BD70B504460D46002048
:101C70000AE0225C10490B780978491C0E4E31703D
:101C80000C49CA54411CC8B2A842F2DB07480C30C8
:101C9000008800F0800028B9012240F22771034833
:101CA00002F06FFD70BD00000008014000380140E7
:101CB0006100002044070020620000206300002033
:101CC00044080020640000206500002008B50121C0
:101CD000084600F07CFE01214FF4037000F084FE02
:101CE0000F20ADF8000000208DF80300694653482E
:101CF00001F08AFA0120ADF8000000208DF8030001
:101D000069464F4801F080FA08BD00B591B04D48D2
:101D100003F088F84C4806904C4807900020089043
:101D20000920099000200A9080200B9040000C9020
:101D300080000D9020200E9000020F900020109047
:101D400006A9404803F010F901213E4803F037F995
:101D50003D484C3802F03EFE012003F01FF8002001
:101D6000019001208DF808008DF809004FF46020E3
:101D700003900020049009208DF8140001A9324836
:101D80004C3802F04EFE4FF4004000F091FD062367
:101D9000012200212C484C3802F0DBFE06230222EF
:101DA000012129484C3802F0D4FE062303220221E7
:101DB00025484C3802F0CDFE072304220321224897
:101DC0004C3802F0C6FE0623082211461E484C3845
:101DD00002F0BFFE0723092211211B484C3802F0F4
:101DE000B8FE012118484C3802F052FE0121164875
:101DF0004C3802F042FE14484C3802F060FE00BF3E
:101E000011484C3802F060FE0028F9D10E484C38D9
:101E100002F064FE00BF0C484C3802F064FE00285B
:101E2000F9D1012108484C3802F067FE11B000BD1D
:101E300010B5FFF74BFFFFF768FF10BD000801402A
:101E4000000C0140080002404C24014044090020DD
:101E500010B504F0DDFC04F0C9FC04F0AFFC03F0A5
:101E60009BFE00207B49087004F0FDFC6420FFF716
:101E7000C2FA012004F0F7FC10BD70B50246002044
:101E80000AE0145C744B1D781B785B1C724E337037
:101E9000724B5C55431CD8B28842F2DB70BD10B562
:101EA0006D4800786E490978884263DD6A48007899
:101EB0006B490978401A3F281FDB002069490870E8
:101EC0003F206949087000200BE065490A780978CD
:101ED000491C634B197061498A5C634B411C5A541D
:101EE000C8B23F28F1DB40224FF48C715E4804F009
:101EF0005BF8022004F038F9ABE05A480078401C47
:101F00005849087008460078584909788842F3D142
:101F10000020544908705048007851490978401A07
:101F200051490870002015E04B4909784C4A127855
:101F3000891A814208DD4A4909780144474A525CBE
:101F4000494B411C5A5403E00022474B411C5A5450
:101F5000411CC8B23F28E7DB3F4800784049087081
:101F600040224FF48C71404804F01EF8022004F027
:101F7000FBF86EE03848007839490978884268DA19
:101F800037480078C0F580703349097808443F2805
:101F90001FDB0020334908703F20334908700020C0
:101FA0000BE02F490A780978491C2D4B19702B49F1
:101FB0008A5C2D4B411C5A54C8B23F28F1DB4022A9
:101FC0004FF48C71284803F0EFFF022004F0CCF8A6
:101FD0003FE024480078401C2249087008460078F9
:101FE00022490978884234D100201E4908701C48D3
:101FF000007840421849097808441B4908700020BD
:1020000018E017490978C1F58071134A1278114414
:10201000814209DD124909780144C9B20F4A525C74
:10202000114B411C5A5403E000220F4B411C5A54DF
:10203000411CC8B23F28E4DB074800780849087013
:1020400040224FF48C71084803F0AEFF022004F0E8
:102050008BF810BDDA0000206800002096090020EF
:102060006700002069000020B40A002066000020FC
:1020700018B50246002016E04B1E441CA3420ADBA2
:10208000244BC35A00939DF8003013549DF801402F
:10209000431CD45405E01F4BC35A00939DF80030F5
:1020A0001354831C98B28842E6DB012018BD2DE949
:1020B000F04105460E4600F088FD164800F0CAFDC6
:1020C0008046B8F1040F02D00020BDE8F081002462
:1020D0001BE0701E611C884206DB295D601C285CC9
:1020E00001EB002087B203E0285D00F57F4087B256
:1020F00008496018394600F0B0FE8046B8F1040F78
:1021000001D00020E1E7A01C84B2B442E1DB012051
:10211000DBE700000000010808B50121092000F0FC
:1021200063FC0121E74801F040F90121E64801F094
:102130003CF940F6FC10ADF8000048208DF8030093
:1021400003208DF802006946E04801F05DF84FF485
:102150000060DF4948808880C88008BD10B5002035
:10216000DC49C881D9480830006800F0800028B9EF
:102170000846B0F90E0040F00100C881D34808308D
:10218000006800F4807030B9D248B0F90E0040F019
:102190000200D049C881CF48807B00F00100A8B17F
:1021A000CD480078401CCC49087008460078C82803
:1021B00004D10120C9490870FFF7B4F9C648007876
:1021C000FA2825DBFA20C449087021E0C2480078CB
:1021D00002281ADBC0480078642816DCC048007862
:1021E000012812D1BF490870BD488078401CBC4905
:1021F000887008468078022804DC0846807B00F05E
:10220000400010B10020B64988700020B249087023
:10221000B048807B00F00200A8B1B3480078401CB1
:10222000B149087008460078C82804D10120AF4998
:102230004870FFF777F9AC480078FA2818DBFA20E5
:10224000A949087014E0A848007802280DDBA648C8
:102250000078642809DC9F48B0F90A0080F48760A0
:102260009C49488101209F49087000209E490870C0
:102270009C480078012815D18102944801F073F838
:102280009B480078401C9A49087008460078052849
:1022900008DD00200870934908704FF480618B4876
:1022A00001F05FF810BD10B54FF40071874801F0E0
:1022B00058F89048007820B101281FD002281CD17E
:1022C00028E08D4800688D490968401A0A2814D909
:1022D0007E480830006840F67C010840884202D100
:1022E0000120844908704FF48061784801F039F882
:1022F0004FF40071754801F036F894E073480830E7
:10230000006840F67C010840884202D002207949EA
:10231000087088E06D480830006800F0400068B937
:10232000724840880A38714948800846408889893F
:10233000884266D101207249087062E06348083023
:10234000006800F0100068B9684840880A306749A2
:102350004880084640888989884252D101206849CE
:1023600008704EE059480830006800F0200068B955
:102370005E4880880A305D49888008468088C9891F
:1023800088423ED101205E4908703AE04F4808304B
:10239000006800F0080068B9544880880A3853493A
:1023A000888008468088C98988422AD101205449FA
:1023B000087026E045480830006800F0040068B95D
:1023C0004A4800890A304949088108460089098A33
:1023D000884216D101204A49087012E03B48083073
:1023E000006800F4006060B9404800890A383F493D
:1023F000088108460089098A884202D101204049A3
:10240000087000203B4908704FF480612F4800F0AD
:10241000AAFF4FF400712D4800F0A3FF3648006872
:102420003649086000BF00BF35480078F0B3354832
:102430000068401C3349086008460068012807D03E
:1024400008460068142803D00846006828280AD1E6
:102450004FF480611D4800F086FF4FF400711B4867
:1024600000F07FFF2CE0274800680A2803D92548A0
:10247000006814280FD3234800681E2803D9214878
:102480000068282807D31F480068322818D91D483B
:1024900000683D2814D24FF480610C4800F061FFC1
:1024A0004FF40071094800F05EFF00E008E01548B5
:1024B00000683C2804D100201149087011490860C7
:1024C00010BD00000004300000023000000C01408C
:1024D000C0010020CA0100206E0000205B00002027
:1024E000E4060020700000206F000020D2020020CF
:1024F00071000020720000204800002074000020BD
:1025000073000020780000200648804706480047F6
:10251000FEE7FEE7FEE7FEE7FEE7FEE7FEE7FEE793
:10252000FEE7FEE70B260008ED0000080CB50020D2
:10253000019000906C48006840F480306A4908605F
:1025400000BF6948006800F4003000900198401C0A
:102550000190009818B90198B0F5A06FF1D16248C8
:10256000006800F4003010B10120009001E000206C
:1025700000900098012843D15C48006840F01000AA
:102580005A4908600846006820F0030008600846C1
:10259000006840F0020008605348406852494860B3
:1025A0000846406848600846406840F480604860DB
:1025B0000846406820F47C1048600846406840F4B3
:1025C000E81048600846006840F08070086000BF6E
:1025D0004548006800F000700028F9D04248406883
:1025E00020F00300404948600846406840F002007F
:1025F000486000BF3C48406800F00C000828F9D152
:102600000CBD10B5FFF792FF10BD10B5364800683D
:1026100040F00100344908600846406834490840E9
:102620003149486008460068324908402E49086030
:102630000846006820F4802008600846406820F4BE
:10264000FE0048604FF41F008860FFF7DAFF4FF08C
:1026500000602949086010BD10B50021002000224B
:10266000214B5B6803F00C0121B1042906D0082935
:1026700028D107E0214B224C236027E01F4B204C40
:10268000236023E0184B5B6803F47010164B5B6803
:1026900003F48032022303EB904022B9194B4343E9
:1026A000174C23600DE0104B5B6803F4003323B13B
:1026B000144B4343124C236003E0104B4343104C34
:1026C000236003E00D4B0E4C236000BF00BF064BA0
:1026D0005B68C3F303130C4CE15C094B1B68CB40F4
:1026E000074C236010BD0000001002400020024093
:1026F0000000FFF8FFFFF6FE08ED00E000127A0090
:102700007C00002000093D0080000020DF480068B8
:1027100040F00100DD49086008464068DC49084097
:10272000DA49486008460068DA490840D749086035
:102730000846006820F4802008600846406820F4BD
:10274000FE0048604FF41F0088607047CF49096859
:1027500021F48031CD4A11601146096821F48021AD
:102760001160B0F5803F03D0B0F5802F0ED106E0A8
:10277000C649096841F48031C44A116007E0C34981
:10278000096841F4A021C14A116000E000BF00BF08
:10279000704710B501460022002300204A11012A8B
:1027A00002D1BA4C236806E0022A02D1B74C236A50
:1027B00001E0B64C636A01F01F02012494401C4002
:1027C0000CB1012000E0002010BD38B500200090C1
:1027D0000024002500BF3120FFF7DBFF05460098ED
:1027E000401C00900098B0F5A06F01D0002DF2D0F1
:1027F0003120FFF7CEFF08B1012400E0002420467D
:1028000038BD01460020A14A106820F0F80040EAD7
:10281000C10010607047A049086070470246002060
:102820009A4B586820F47C1042EA01031843974BF6
:102830005860704798490866704701460020934ADF
:10284000506820F003000843506070478F4840688C
:1028500000F00C007047014600208C4A506820F0C0
:10286000F00008435060704701460020874A5068D6
:1028700020F4E06008435060704701460020834A1E
:10288000506820F4605040EAC1005060704729B1A0
:102890007E4A527A02437D4B5A7204E07B4A527A56
:1028A00082437A4B5A7270477B49D831086070472F
:1028B00001460020754A506820F4404008435060AB
:1028C00070470021714A20321170704A82F820103E
:1028D000012802D004280AD104E001216B4A2032E9
:1028E000117005E00521694A2032117000E000BF37
:1028F00000BF70476949086070476449096A01432D
:10290000624A11627047654944390860704730B5C2
:1029100000210022002400235C4D6D6805F00C01AD
:1029200021B1042905D0082923D105E05C4D0560BB
:1029300022E05B4D05601FE0544D6D6805F4701298
:10294000524D6D6805F48034022505EB92421CB9A6
:10295000544D554305600BE04C4D6D6805F4003552
:102960001DB1504D5543056002E04D4D5543056086
:1029700002E04B4D056000BF00BF444D6D6805F09F
:10298000F0010909484D6B5C0568DD4045603F4D2D
:102990006D6805F4E061090A434D6B5C4568DD40F4
:1029A00085603A4D6D6805F46051C90A3E4D6B5C17
:1029B0004568DD40C560354D6D6805F44041890BC3
:1029C0003A4D6B5CC568B5FBF3F5056130BD29B1C7
:1029D0002E4A526902432D4B5A6104E02B4A526938
:1029E00082432A4B5A61704729B1284A92690243AF
:1029F000264B9A6104E0254A92698243234B9A61EF
:102A0000704729B1214AD2690243204BDA6104E0C0
:102A10001E4AD26982431D4BDA61704729B11B4AB5
:102A2000D2680243194BDA6004E0184AD268824344
:102A3000164BDA60704729B1144A12690243134BEE
:102A40001A6104E0114A12698243104B1A617047FF
:102A500012494039086070470F49C86470470B49F4
:102A6000C87170470948406A40F080700749486261
:102A7000704701460020054A92680A400AB10120C9
:102A800000E0002070470149887270470010024042
:102A90000000FFF8FFFFF6FE0000424280044242C1
:102AA00000127A0000093D0090000020A0000020E4
:102AB00031490143314A1160704770B5002100234C
:102AC0000F22C47804B32D4C246804F4E064C4F5E8
:102AD000E064210AC1F10403CA40447804FA03F116
:102AE0008478144021430901254C0678A1550478C7
:102AF00004F01F050124AC4005786D11AD0005F10F
:102B0000E025C5F8004109E0047804F01F05012420
:102B1000AC401C4D0678761145F8264070BD1A4A27
:102B20000A400243154B1B1F1A60704739B1134A04
:102B3000121D12680243114B1B1D1A6006E00F4A5A
:102B4000121D126882430D4B1B1D1A60704704282A
:102B500008D14FF0E021096941F004014FF0E02273
:102B6000116107E04FF0E021096921F004014FF005
:102B7000E0221161704700000000FA050CED00E052
:102B800000E400E080E100E080FFFF1F014600203C
:102B9000FE4A106800F03800084310607047FB4997
:102BA000096821F00801F94A1160114609680143DA
:102BB00011607047F549096821F01001F34A11606E
:102BC00011460968014311607047F148EF494860B8
:102BD000F04848607047EE48EC494860ED4848606E
:102BE0007047EA48006940F08000E8490861704792
:102BF000E648006940F08000E4490861704704201D
:102C0000E249C96801F0010109B101200EE0DF4984
:102C1000C96801F0040109B1022007E0DB49C96875
:102C200001F0100109B1032000E00420704700B555
:102C300002460423FFF7E3FF034603E0FFF7DFFF4D
:102C40000346521E012B01D1002AF7D102B90523F8
:102C5000184600BD30B5044604254FF43020FFF778
:102C6000E6FF0546042D17D1C848006940F0020070
:102C7000C649086108464461006940F040000861A7
:102C80004FF43020FFF7D3FF0546C048006941F6F6
:102C9000FD710840BD490861284630BD10B50424C7
:102CA0004FF43020FFF7C3FF0446042C16D1B74879
:102CB000006940F00400B54908610846006940F029
:102CC000400008614FF43020FFF7B1FF0446AF48E1
:102CD000006941F6FB710840AC490861204610BD0F
:102CE00000B502460423FFF78AFF034603E0FFF71F
:102CF00086FF0346521E012B01D1002AF7D102B9EB
:102D00000523184600BD10B504244FF43020FFF70A
:102D1000E7FF0446042C16D19C48006940F00400EB
:102D20009A4908610846006940F0400008614FF484
:102D30003020FFF7D5FF04469448006941F6FB7147
:102D4000084092490861204610BD00208F49C9699A
:102D500001F0020109B1012000E00020704730B508
:102D6000A5250424FFF7F1FF00B100254FF4302022
:102D7000FFF75DFF0446042C3AD1854883498860FB
:102D8000844888600846006940F0200008610846D1
:102D9000006940F0400008614FF43020FFF747FF22
:102DA0000446042C1BD17948006941F6DF710840C4
:102DB000764908610846006940F0100008617648CD
:102DC0000580E002FFF733FF0446052C10D06F4862
:102DD000006941F6EF7108406C49086108E0052C74
:102DE00006D06A48006941F6EF71084067490861FA
:102DF000204630BD78B506460C46042500200090DC
:102E0000E802FFF714FF0546042D24D15F4800694E
:102E100040F001005D4908613480E802FFF707FFD8
:102E20000546042D10D1B01C0090200C009908809C
:102E3000E802FFF7FCFE05465448006941F6FE71C2
:102E400008405249086106E05048006941F6FE71A9
:102E500008404E490861284678BD70B504460D46C5
:102E60000426F002FFF7E3FE0646042E11D1474880
:102E7000006940F00100454908612580F002FFF734
:102E8000D6FE06464148006941F6FE7108403F49BA
:102E90000861304670BD70B505460E460424E00258
:102EA000FFF7C5FE0446042C17D13948374988601E
:102EB000384888600846006940F0100008612E809C
:102EC000E002FFF7B4FE0446052C06D02F48006947
:102ED00041F6EF7108402D490861204670BD2DE98B
:102EE000F04304464FF6FF763746B046B146042518
:102EF000E443E6B2C4F30727C4F307484FEA146972
:102F0000E802FFF794FE0546042D49D120481F49E9
:102F10008860204888600846006940F01000086119
:102F2000FF2E06D01C4808300680E802FFF77FFE1F
:102F30000546042D08D1FF2F06D017480A30078018
:102F4000E802FFF774FE0546042D0AD1B8F1FF0F21
:102F500007D011480C30A0F80080E802FFF767FEA8
:102F60000546042D0AD1B9F1FF0F07D00A480E30EB
:102F7000A0F80090E802FFF75AFE0546052D0FD095
:102F80000248006941F6EF71084007E00020024066
:102F900023016745AB89EFCD00F8FF1F6649086143
:102FA0002846BDE8F08330B5054604244FF43020B0
:102FB000FFF73DFE0446042C41D160485E4988601D
:102FC0005F4888600846006940F0200008610846B4
:102FD000006940F0400008614FF43020FFF727FE01
:102FE0000446042C22D15448006941F6DF710840A0
:102FF000514908610846006940F0100008611DB1A0
:1030000000205049088002E0A5204E4908804FF476
:103010003020FFF70CFE0446052C10D0464800690E
:1030200041F6EF7108404449086108E0052C06D0DC
:103030004148006941F6DF7108403F490861204678
:1030400030BDF0B505460E46174604243B483A49C4
:1030500088603B488860E002FFF7E9FD0446042CE5
:1030600019D13548006940F010003349086147F034
:10307000F800304328433349891C0880E002FFF7F9
:10308000D6FD0446052C06D02B48006941F6EF71A9
:103090000840294908612046F0BD2748C0698008DA
:1030A00070472548006A704700202349096801F0ED
:1030B000200109B1012000E00020704729B11E4A1B
:1030C000126902431C4B1A6104E01B4A12698243D5
:1030D000194B1A61704701460020012908D1164A90
:1030E000D26902F001020AB1012008E0002006E0E6
:1030F000114AD2680A400AB1012000E0002070475E
:103100000D49C860704704200B49C96801F00101EE
:1031100009B101200EE00849C96801F0040109B1B4
:10312000022007E00449C96801F0100109B1032039
:1031300000E00420704700000020024023016745A2
:10314000AB89EFCD00F8FF1F10B50446CC48844290
:1031500008D101210420FFF761FC00210420FFF7C2
:103160005DFC46E0C748844208D101210820FFF7F2
:1031700055FC00210820FFF751FC3AE0C248844288
:1031800008D101211020FFF749FC00211020FFF792
:1031900045FC2EE0BD48844208D101212020FFF7E4
:1031A0003DFC00212020FFF739FC22E0B848844292
:1031B00008D101214020FFF731FC00214020FFF71A
:1031C0002DFC16E0B348844208D101218020FFF78E
:1031D00025FC00218020FFF721FC0AE0AE48844254
:1031E00007D101218015FFF719FC0021A015FFF779
:1031F00015FC10BD10B501210846FFF70FFC00219A
:103200000120FFF70BFC10BD2DE9F041024600251F
:103210000026002000230024002791F803C00CF0B2
:103220000F0591F803C00CF0100CBCF1000F03D097
:1032300091F802C04CEA050591F800C0BCF1000FFE
:1032400031D0146800202BE04FF0010C0CFA00F391
:10325000B1F800C00CEA03069E4220D183004FF073
:103260000F0C0CFA03F7BC4305FA03FC4CEA040408
:1032700091F803C0BCF1280F06D14FF0010C0CFAF5
:1032800000FCC2F814C00AE091F803C0BCF1480F7A
:1032900005D14FF0010C0CFA00FCC2F810C0401C24
:1032A0000828D1D31460B1F800C0BCF1FF0F34DDA1
:1032B000546800202EE000F1080C4FF0010808FAD5
:1032C0000CF3B1F800C00CEA03069E4221D1830042
:1032D0004FF00F0C0CFA03F7BC4305FA03FC4CEA61
:1032E000040491F803C0BCF1280F05D100F1080CCB
:1032F00008FA0CF8C2F8148091F803C0BCF1480F2A
:1033000007D100F1080C4FF0010808FA0CF8C2F8D8
:103310001080401C0828CED35460BDE8F0814FF6E1
:10332000FF710180022181700421C1707047024643
:10333000002093680B400BB1012000E00020704793
:103340000146886880B2704702460020D3680B406F
:103350000BB1012000E0002070470146C86880B230
:10336000704701617047416170470AB1016100E037
:1033700041617047C16070474FF480320A438261F7
:103380008161826182698269704702460020434BF5
:1033900018684FF68073184040EA021008433F4B0C
:1033A000186070473E49C8617047F0B50A4600236F
:1033B00000240021002500F00046B6F1004F02D1A4
:1033C000364EF16901E0354E7168C0F3034583B2B2
:1033D00000F44016B6F5401F08D121F070612F4E61
:1033E000766826F070662D4F7E6012E000F480163D
:1033F000B6F5801F06D1032606FA05F4A14341F075
:10340000706106E0460D360103FA06F6B14341F05D
:10341000706122B1460D360103FA06F6314300F021
:103420000046B6F1004F02D11C4EF16101E01B4E87
:103430007160F0BD30B500228B071C0F0F2303FA1B
:1034400004F2164B08338C1053F824309343134C7A
:1034500008348D1044F8253023468C1053F824305E
:103460008C07240F00FA04F423430C4C08348D100D
:1034700044F8253030BD0A49DC310860704700004F
:1034800000080140000C0140001001400014014000
:1034900000180140001C01400020014000000140D4
:1034A0000000204210B50446BE48844208D10121E4
:1034B0008014FFF7B3FA0021A014FFF7AFFA16E06B
:1034C000B948844208D101210014FFF7B4FA002161
:1034D0002014FFF7B0FA0AE0B448844207D1012172
:1034E000C013FFF7A8FA0021E013FFF7A4FA10BDFC
:1034F00010B50022028802F441520B884C88234305
:103500008C882343CC8823430C8923434C89234351
:103510008C892343CC8923431A430280838B4FF247
:10352000FF74234083830B8A038210BD2DE9F04F83
:1035300085B005460C464FF0000902274FF0000801
:103540004FF0010B0026B246A88B4FF24001084015
:10355000A88302202884B5F81C90A068022801D115
:1035600000BF38E0A08810B94FF0010B01E04FF028
:10357000020B8D48854200D100E000BF6846FFF78E
:10358000C6F9DDF800A0E088B0F5007F0AD14FEA67
:103590001A2000EB80004000A168B0FBF1F0401D54
:1035A00086B20BE04FEA4B10BAFBF0F000EB800064
:1035B0004000A168B0FBF1F0401D86B20A20B6FBC6
:1035C000F0F606F00108A6EB0800C0F34F074FF62F
:1035D000FF7000EA0828022F01DBFF2F02DD02271F
:1035E0004FF00008E08840EA080038432884A088AB
:1035F000A1890843618808432188084340F400609A
:1036000040EA0909A5F81C9005B0BDE8F08F00213B
:10361000018041808180C180018141818181C1819E
:103620000721018270470021018041808180C18093
:103630000221816000218181704721B1028842F01E
:103640004002028004E002884FF6BF731A400280F5
:10365000704721B1828B42F48062828304E0828BC6
:103660004FF6FF331A408283704730B500240023A1
:103670000C110125A540ABB21AB185881D43858088
:1036800002E085889D43858030BD1AB183880B4355
:10369000838002E083888B438380704781817047F9
:1036A0000146888970474FF6FF62914204D0028834
:1036B00042F48072028004E002884FF6FF631A40F1
:1036C0000280704721B1828842F00402828004E0C7
:1036D00082884FF6FB731A408280704702884FF24F
:1036E000FF731A40028002880A43028070470188F3
:1036F00041F480510180704721B1028842F40052A8
:10370000028004E002884DF6FF731A400280704781
:1037100002460020012901D0108B00E0908A7047FA
:103720000146088A7047B1F5804F04D1028842F4FF
:103730008042028004E002884BF6FF731A40028048
:1037400070470246002013890B400BB1012000E0B6
:1037500000207047CA4302817047F0B5024600203E
:1037600000240023002501F00F070126BE40B4B25B
:103770000B1101269E40B3B2968806EA030516890E
:10378000264016B10DB1012000E00020F0BD10B5BB
:10379000002201F00F040123A3409AB2D343038116
:1037A00010BD00000030014000380040003C0040E7
:1037B00010B50446FE48844208D10121C014FFF729
:1037C0002DF90021E014FFF729F9C4E0B4F1804F8E
:1037D00008D101210846FFF72EF900210120FFF74B
:1037E0002AF9B8E0F348844208D101210220FFF70A
:1037F00022F900210220FFF71EF9ACE0EE488442D6
:1038000008D101210420FFF716F900210420FFF759
:1038100012F9A0E0E948844208D101210820FFF70D
:103820000AF900210820FFF706F994E0E4488442F1
:1038300008D101211020FFF7FEF800211020FFF72A
:10384000FAF888E0DF48844208D101212020FFF700
:10385000F2F800212020FFF7EEF87CE0DA488442FD
:1038600008D101214014FFF7D9F800216014FFF7B7
:10387000D5F870E0D548844209D10121C804FFF78A
:10388000CDF800214FF40020FFF7C8F863E0D048DE
:10389000844209D101210805FFF7C0F800214FF447
:1038A0008010FFF7BBF856E0CA48844209D10121D5
:1038B0004805FFF7B3F800214FF40010FFF7AEF80A
:1038C00049E0C548844208D101214020FFF7B3F800
:1038D00000214020FFF7AFF83DE0C048844208D106
:1038E00001218020FFF7A7F800218020FFF7A3F82F
:1038F00031E0BB48844208D101218015FFF79BF8D5
:103900000021A015FFF797F825E0B648844209D1B9
:1039100001210804FFF782F800214FF48030FFF7FF
:103920007DF818E0B048844209D101214804FFF72E
:1039300075F800214FF40030FFF770F80BE0AB484A
:10394000844208D101218804FFF768F800214FF470
:103950008020FFF763F810BD00220288944B984244
:103960000ED0994B98420BD0B0F1804F08D0914BBC
:10397000984205D0904B984202D0904B984204D187
:103980004FF68F731A404B881A438D4B984207D0DD
:103990008C4B984204D04FF6FF431A40CB881A4311
:1039A00002808B8883850B880385814B98420BD0DE
:1039B000854B984208D08B4B984205D08A4B984251
:1039C00002D08A4B984201D10B7A0386012383826D
:1039D000704770B5002400220023058C4FF6FE7658
:1039E00035400584028C8388048B4FF68F752C40FC
:1039F000B51E2C400D882C43751E2A400D892A4384
:103A00004D882A436A4DA8420BD06F4DA84208D07A
:103A1000744DA84205D0744DA84202D0734DA842FF
:103A200013D14FF6F7752A404D892A434FF6FB759F
:103A30002A408D882A434FF6FF652B404FF6FF55ED
:103A40002B408D892B43CD892B4383800483CD88E4
:103A50008586028470BD70B5002400220023058C89
:103A60004FF6EF7635400584028C8388048B48F648
:103A7000FF752C404FF6FF452C400D884FF6FF7622
:103A800006EA05252C434FF6DF752A400D8906EA24
:103A900005152A434D8806EA05152A43444DA842D8
:103AA00002D0494DA8421DD14FF67F752A404D895D
:103AB0004FF6FF7606EA05152A434FF6BF752A40F2
:103AC0008D8806EA05152A434FF6FF352B404FF245
:103AD000FF752B408D8906EA85052B43CD8906EAC3
:103AE00085052B4383800483CD880587028470BDC0
:103AF00070B5002400220023058C4FF6FF66354088
:103B00000584028C8388848B4FF68F752C404FF68A
:103B1000FC752C400D882C434FF6FF552A400D892B
:103B20004FF6FF7606EA05252A434D8806EA052565
:103B30002A431F4DA84202D0234DA8421DD14FF267
:103B4000FF752A404D894FF6FF7606EA05252A4380
:103B50004FF6FF352A408D8806EA05252A434EF6A2
:103B6000FF752B404DF6FF752B408D8906EA051534
:103B70002B43CD8906EA05152B4383808483CD88AA
:103B80008587028470BD70B5002200230024058C57
:103B90004EF6FF7635400584038C8488828B48F688
:103BA000FF752A404FF6FF452A400D8820E00000AF
:103BB000002C01400004004000080040000C0040C0
:103BC000001000400014004000340140004C01404F
:103BD000005001400054014000180040001C00400B
:103BE00000200040004001400044014000480140E6
:103BF0004FF6FF7606EA05252A434DF6FF752B4062
:103C00000D8906EA05352B434D8806EA05352B4319
:103C1000FA4DA84202D0FA4DA84208D14BF6FF75E2
:103C20002C408D894FF6FF7606EA85152C4384805B
:103C30008283CD88A0F84050038470BD828B4FF200
:103C4000FF331A408283828B4FF6FF7303EA01230E
:103C50001A4382837047F0B50C46154600220021B6
:103C60000026078C4EF6FF7C07EA0C070784828B40
:103C7000018C4FF6FF7707EA043640F6FF473A40DB
:103C80004FF6FF7707EA05273A434FF6FF7707EA33
:103C900003373A43D94FB8420ED0D94FB8420BD070
:103CA000B0F1804F08D0D74FB84205D0D64FB842B8
:103CB00002D0D64FB84206D14DF6FF77394046F4D0
:103CC0008057394305E047F6FF57394044F48057A1
:103CD000394382830184F0BD828B4FF6F3731A401F
:103CE0008283828B0A4382837047F0B50C46154667
:103CF000002200210026078C4FF6FF6C07EA0C0714
:103D00000784828B018C4FF6FF7707EA04264FF673
:103D10000C773A404FF6FF7707EA03172F433A43F1
:103D2000B64FB8420ED0B64FB8420BD0B0F1804F6C
:103D300008D0B44FB84205D0B34FB84202D0B34F09
:103D4000B84206D14FF6FF57394046F480773943E1
:103D500005E04FF2FF57394044F4807739438283BE
:103D60000184F0BD028B4FF2FF331A400283028BB5
:103D70004FF6FF7303EA01231A4302837047F0B53D
:103D80000C461546002200210026078C4FF6EF7CDA
:103D900007EA0C070784028B018C4FF6FF7707EACE
:103DA000041640F6FF473A404FF6FF7707EA03371D
:103DB0003A434FF6FF7707EA05273A438F4FB84259
:103DC0000ED08F4FB8420BD0B0F1804F08D08D4F3E
:103DD000B84205D08C4FB84202D08C4FB84206D1C1
:103DE0004FF6DF77394046F01007394305E04FF6CC
:103DF0005F77394044F01007394302830184F0BDF6
:103E0000028B4FF6F3731A400283028B0A4302833C
:103E10007047F0B50C46154600220021068C4FF67F
:103E2000FE773E400684028B018C4FF60C763240C2
:103E30007E1C06EA03162E433243704EB0420ED06B
:103E40006F4EB0420BD0B0F1804F08D06D4EB042F3
:103E500005D06D4EB04202D06C4EB04206D14FF646
:103E6000FD76314044F00106314305E04FF6F5762A
:103E7000314044F00106314302830184F0BD70B546
:103E800005460C465D4885420ED05D4885420BD004
:103E9000B5F1804F08D05B48854205D05A4885422D
:103EA00002D05A48854200D100E000BF208850B9B6
:103EB0002389A28861882846FFF7ABFFE18828465E
:103EC000FFF79EFF25E0208804280AD12389A288D5
:103ED00061882846FFF753FFE1882846FFF742FF35
:103EE00017E0208808280AD12389A28861882846FB
:103EF000FFF7FBFEE1882846FFF7EEFE09E0238985
:103F0000A28861882846FFF7A6FEE1882846FFF7C9
:103F100095FE70BD2DE9F04105460C4600260127AF
:103F2000608808B9022600E00026A088012801D197
:103F3000022700E001272088A0B92389A288618890
:103F40002846FFF766FFE1882846FFF759FF2389D7
:103F50003A4631462846FFF712FFE1882846FFF728
:103F600001FF13E02389A28861882846FFF707FF35
:103F7000E1882846FFF7F6FE23893A46314628466F
:103F8000FFF747FFE1882846FFF73AFFBDE8F081D9
:103F90000A884B881A438B881A43CB881A430B89AB
:103FA0001A434B891A438B891A43A0F8442070475F
:103FB0004FF6FF71818000210180C1804180017234
:103FC00070470021018041808180C1800181418151
:103FD0008181C18170470021018041800121818060
:103FE0000021C180018170470021018041808180D2
:103FF000C18001814181818170470000002C014016
:10400000003401400004004000080040000C004063
:1040100021B1028842F00102028004E002884FF6DA
:10402000FE731A400280704731B1B0F8442042F468
:104030000042A0F8442005E0B0F84420C2F30E028C
:10404000A0F8442070471AB183890B43838102E0B2
:1040500083898B43838170478182704741EA0203E1
:10406000A0F8483070471AB183890B43838102E07E
:1040700083898B438381704701894FF6F872114021
:10408000018170470A46002101894FF68F7319405C
:1040900011430181704730B504460D46294620463C
:1040A000FFF7F0FF208940F00700208130BD2DE9A7
:1040B000F04104460D4616461F46602D06D13B468C
:1040C000012231462046FFF75AFE05E03B46012219
:1040D00031462046FFF79DFE29462046FFF7D2FFD6
:1040E000208940F007002081BDE8F08130B50C4602
:1040F00000210189C9B24FF6FF7505EA0325154372
:1041000025432943018130BD2DE9F04105460E4686
:1041100017469846002443463A4631462846FFF75C
:10412000E5FF2C894FF6F870044044F007044FF681
:104130008F70044044F070042C81BDE8F081F0B52C
:1041400004460D4616461F463B4632462946204643
:10415000FFF7CCFF208940F480402081F0BD01852D
:10416000828270470A46002101884FF68F731940FA
:10417000114301807047F0B50C4615461E460021DC
:10418000002200230189028B038C4FF6F877394017
:1041900021434FF6FC473A4040F201173A434FF6AD
:1041A000DD773B404FF6FF7707EA06172F433B4387
:1041B000018102830384F0BD0A460021018B4FF682
:1041C0008F7319401143018370470A460021018B08
:1041D00048F6FF7319404FF6FF7303EA02231943B1
:1041E000018370470A460021818B4FF68F73194077
:1041F0001143818370470A460021818B48F6FF7383
:1042000019404FF6FF7303EA022319438183704775
:1042100021B1028842F08002028004E002884FF659
:104220007F731A400280704721B1828842F00402F5
:10423000828004E082884FF6FB731A4082807047C8
:1042400021B1828842F00802828004E082884FF621
:10425000F7731A408280704721B1828842F00102D0
:10426000828004E082884FF6FE731A408280704795
:104270000A460021018B4FF6F77319401143018361
:1042800070470A460021018B4FF2FF7319404FF629
:10429000FF7303EA02231943018370470A46002192
:1042A000818B4FF6F77319401143818370470A469B
:1042B0000021818B4FF2FF7319404FF6FF7303EA21
:1042C00002231943818370470A460021018B4FF670
:1042D000FB7319401143018370470A460021018B8B
:1042E0004FF6FF3319404FF6FF7303EA02231943D9
:1042F000018370470A460021818B4FF6FB731940FA
:104300001143818370470A460021818B4FF6FF33AA
:1043100019404FF6FF7303EA022319438183704764
:104320000A460021018B4FF67F7319401143018328
:1043300070470A460021018BC1F30E014FF6FF734F
:1043400003EA02231943018370470A460021818B47
:104350004FF67F7319401143818370470A4600214D
:10436000818BC1F30E014FF6FF7303EA0223194359
:10437000818370470A460021018C4FF6FD73194076
:104380001143018470470A460021018C4FF6F773F0
:1043900019401143018470470A460021018C4FF6F1
:1043A000DF7319404FF6FF7303EA021319430184C8
:1043B00070470A460021018C4FF67F7319404FF673
:1043C000FF7303EA02131943018470470A46002170
:1043D000018C4FF6FF5319404FF6FF7303EA022397
:1043E0001943018470470A460021018C4FF2FF7384
:1043F00019404FF6FF7303EA022319430184704703
:104400000A460021018C4DF6FF7319404FF6FF73E9
:1044100003EA023319430184704730B500230124B5
:104420008C40A3B2048C9C430484048C02FA01F5F2
:10443000ADB22C43048430BD30B5002304248C403D
:10444000A3B2048C9C430484048C02FA01F5ADB23F
:104450002C43048430BD70B5034600200024184668
:10446000183001258D40ACB21D8CA5431D8409B1C7
:10447000082909D100EB6100056825F07005056089
:104480000568154305600EE00D1FC5F34E05284471
:10449000056825F4E045056005684FF6FF7606EAF5
:1044A00002263543056070BD21B1028842F0020248
:1044B000028004E002884FF6FD731A4002807047C4
:1044C00021B1028842F00402028004E002884FF623
:1044D000FB731A400280704721B1828842F080024B
:1044E000828004E082884FF67F731A408280704792
:1044F00002884FF6F7731A40028002880A4302804E
:10450000704782884FF68F731A40828082880A43F0
:104510008280704702894FF6F8731A40028102893F
:104520000A430281704702894FF67F731A40028165
:1045300002890A43028170478184704781857047F0
:10454000818670470187704781877047A0F84010C7
:10455000704702884FF6FF431A40028002880A43E0
:10456000028070470146888E70470146088F704769
:104570000146888F70470146B1F8400070470146F8
:10458000888C70470146088D704702460020138AC8
:104590000B400BB1012000E000207047CA430282AB
:1045A000704730B50246002000230024158A05EA32
:1045B0000103958905EA010413B10CB1012000E063
:1045C000002030BDCA4302827047000010B5044687
:1045D000FB48844209D101218803FEF71FFA00211C
:1045E0004FF48040FEF71AFA32E0F648844209D1CF
:1045F00001214804FEF71FFA00214FF40030FEF7B6
:104600001AFA25E0F048844209D101218804FEF716
:1046100012FA00214FF48020FEF70DFA18E0EB4863
:10462000844209D10121C804FEF705FA00214FF4A4
:104630000020FEF700FA0BE0E548844208D1012192
:104640000805FEF7F8F900214FF48010FEF7F3F9A2
:1046500010BD2DE9F04786B005460E460024A2465F
:1046600000BFA1460027B08900B100BF2F462C8AA9
:104670004CF6FF700440F08804432C82AC894EF65F
:10468000F3100440B088318908437189084304431A
:10469000AC81AC8A4FF6FF400440B0890443AC8241
:1046A00001A8FEF734F9C648874202D1DDF810A010
:1046B00001E0DDF80CA0A88900F4004040B10AEB4D
:1046C000CA0000EB0A1031684900B0FBF1F807E0BE
:1046D0000AEBCA0000EB0A1031688900B0FBF1F860
:1046E0006420B8FBF0F004012009642101FB10896B
:1046F000A88900F4004040B1322000EBC900B0FBB3
:10470000F1F000F00700044308E0322000EB09104C
:104710006421B0FBF1F000F00F0004432C8106B0DF
:10472000BDE8F0874FF41651016000218180C180FF
:1047300001810C21418100218181704710B5024621
:104740000020108A4FF2FF0318400B884C88234347
:104750008C882343CC8823431843108210BD00214A
:10476000018041808180C180704721B1828942F4FB
:104770000052828104E082894DF6FF731A408281E3
:104780007047F0B50346002400260025002040F6BF
:104790006A17B94200D100BF1846C1F3421401F0B4
:1047A0001F06012707FA06F5012C01D10C3004E0A1
:1047B000022C01D1103000E014301AB107682F43E9
:1047C000076002E00768AF430760F0BD1AB1838A53
:1047D0000B43838202E0838A8B4383827047028A81
:1047E0004FF6F0731A400282028A0A43028270472F
:1047F00082894FF2FF731A40828182890A43828143
:10480000704721B1828942F00202828104E08289EC
:104810004FF6FD731A4082817047028A4FF6DF73AC
:104820001A400282028A0A430282704721B1028A38
:1048300042F48042028204E0028A4BF6FF731A407F
:1048400002827047C1F3080282807047014688885F
:10485000C0F308007047818941F0010181817047F0
:10486000028BD2B20283028B42EA0122028370479A
:10487000028B02F47F420283028B0A430283704759
:1048800021B1828A42F02002828204E0828A4FF6BD
:10489000DF731A408282704721B1828A42F010028F
:1048A000828204E0828A4FF6EF731A408282704758
:1048B00021B1828A42F00802828204E0828A4FF6A5
:1048C000F7731A408282704721B1828942F4004214
:1048D000828103E08289C2F30E028281704721B196
:1048E000828A42F40062828204E0828A4FF2FF737D
:1048F0001A4082827047828A4FF6FB731A40828286
:10490000828A0A438282704721B1828A42F002027F
:10491000828204E0828A4FF6FD731A4082827047D9
:1049200002460020B1F5007F00D100BF13880B4084
:104930000BB1012000E00020704701F40072B2F5D5
:10494000007F00D100BFCA430280704770B50246A5
:10495000002400230025002040F66A16B14200D151
:1049600000BFC1F3421501F01F03012606FA03F34D
:10497000012D02D19689334006E0022D02D1168A1C
:10498000334001E0968A33400C12012606FA04F403
:104990001688344013B10CB1012000E0002070BD36
:1049A00010B50022002340F66A14A14200D100BFD6
:1049B0000A1201249440A3B2DC43048010BD00001D
:1049C000003801400044004000480040004C0040D6
:1049D0000050004010B50446FA48844208D1012135
:1049E0004015FEF71BF800216015FEF717F817E0D9
:1049F000F548844208D101210015FEF70FF8002187
:104A00002015FEF70BF80BE0F048844208D1012195
:104A1000C803FEF703F800214FF40040FDF7FEFF46
:104A200010BD30B50246002000235068E84C2040FD
:104A30000D790C6844EA0524204350609068E54CE9
:104A40002040D1E902542C434D7944EA45042043E7
:104A50009060D06A20F470000C7C641EE4B22343A2
:104A600040EA0350D06230BD002101600171417104
:104A70008160C16001210174704721B1826842F0F8
:104A80000102826003E0826822F0010282607047C6
:104A900021B1826842F48072826003E0826822F46D
:104AA00080728260704710B50023CBB21AB144689F
:104AB0001C43446002E044689C43446010BD81682C
:104AC00041F0080181607047014600208A6802F0C9
:104AD00008020AB1012000E000207047816841F01F
:104AE000040181607047014600208A6802F00402D8
:104AF0000AB1012000E00020704721B1826842F431
:104B0000A002826003E0826822F4A0028260704703
:104B1000014600208A6802F480020AB1012000E008
:104B20000020704710B50A4600210023416821F497
:104B30006041531E41EA4331416010BD21B14268DA
:104B400042F40062426003E0426822F40062426084
:104B50007047F0B504460D4600200021092D11DDF7
:104B6000E068A5F10A0606EB4607072606FA07F1F4
:104B70008843A5F10A0606EB460603FA06F1084348
:104B8000E0600CE0206905EB4507072606FA07F10F
:104B9000884305EB450603FA06F108432061072A1E
:104BA0000FDA606B561E06EB86071F2606FA07F122
:104BB0008843561E06EB860605FA06F10843606335
:104BC00022E00D2A0FDA206BD61F06EB86071F2680
:104BD00006FA07F18843D61F06EB860605FA06F1AA
:104BE0000843206310E0E06AA2F10D0606EB860799
:104BF0001F2606FA07F18843A2F10D0606EB86068A
:104C000005FA06F10843E062F0BD21B1826842F482
:104C10008012826003E0826822F480128260704712
:104C20000146C86C80B2704766484C3000687047D7
:104C300021B1426842F48062426003E0426822F49B
:104C400080624260704721B1426842F48052426003
:104C500003E0426822F48052426070470A46002115
:104C6000816821F4E04111438160704721B182687D
:104C700042F40042826003E0826822F400428260D3
:104C8000704721B1826842F40212826003E08268B8
:104C900022F4021282607047014600208A6802F402
:104CA00000120AB1012000E000207047F0B5044670
:104CB0001546002000220026092911DDE068A1F137
:104CC0000A0707EB470C072707FA0CF29043A1F1FC
:104CD0000A0707EB470703FA07F21043E0600CE00E
:104CE000206901EB410C072707FA0CF2904301EB16
:104CF000410703FA07F210432061A06BC0F301568D
:104D0000EF1C06F1010CA7EB0C0707EB870C1F2724
:104D100007FA0CF29043EF1C06F1010CA7EB0C070D
:104D200007EB870701FA07F21043A063F0BD10B547
:104D30000A4600210023816B21F44011531E41EAF1
:104D40000351816310BD08B5002300930090009BC0
:104D50000B440093009B1A6008BD08B50246002072
:104D60000090009201F12800009B184400900098E8
:104D7000006880B208BD0A4600214168164B194000
:104D80001143416070474162826270470A460021C8
:104D9000416821F01F0111434160704740B109494A
:104DA0000831096841F40001064A0832116007E041
:104DB00004490831096821F40001024A08321160EF
:104DC000704700000024014000280140003C0140E1
:104DD000FFFEF0FFFDF7F1FFFFFD3FFF0246002061
:104DE00013680B400BB1012000E000207047CA435C
:104DF0000260704770B502460020002300240B12A9
:104E00005568CEB205EA060415681D4015B10CB10F
:104E1000012000E0002070BD00220A12D34303608D
:104E20007047000001684FF6FE72114001600021DA
:104E3000016041608160C1608D49884208D18C4920
:104E40000839496841F00F01894A083A51608AE0FF
:104E500087491431884208D185490839496841F0A9
:104E6000F001834A083A51607DE081492831884247
:104E700008D17F490839496841F470617C4A083A91
:104E8000516070E07A493C31884208D1784908394C
:104E9000496841F47041764A083A516063E07449C8
:104EA0005031884208D172490839496841F470216B
:104EB0006F4A083A516056E06D496431884208D122
:104EC0006B490839496841F47001694A083A5160F0
:104ED00049E067497831884208D16549083949680D
:104EE00041F07061624A083A51603CE06149884291
:104EF00006D1011F096841F00F01021F116032E065
:104F00005C491431884208D15A49091F096841F0A7
:104F1000F001584A121F116025E056492831884295
:104F200008D15449091F096841F47061514A121FA0
:104F3000116018E04F493C31884208D14D49091FA2
:104F4000096841F470414B4A121F11600BE0494956
:104F50005031884207D14749091F096841F470213F
:104F6000444A121F1160704710B50022026847F6CC
:104F7000F0739A430C6A8B6823430C6923434C6992
:104F800023438C692343CC6923434C6A23438C6AB3
:104F900023431A430260CB6843600B6883604B680D
:104FA000C36010BD0021016041608160C16001618A
:104FB00041618161C161016241628162704721B1D9
:104FC000026842F00102026004E002684FF6FE73DC
:104FD0001A40026070471AB103680B43036002E095
:104FE00003688B430360704741607047014648681F
:104FF00080B2704701460020002201F080531BB1AF
:105000001C4B083B1A6802E0194B083B1A6802EA7D
:1050100001030BB1012000E00020704700F0805137
:1050200019B11449091F086002E0114908394860A4
:10503000704701460020002201F080531BB10D4B48
:10504000083B1A6802E00A4B083B1A6802EA0103AF
:105050000BB1012000E00020704700F0805119B131
:105060000449091F086002E0014908394860704797
:10507000080002400804024010B504462CB9012083
:10508000F94909680882002010BDF84909680868D4
:105090008047F54800680A30F6E710B5F248006826
:1050A000C078F3494978884213DCEF48006880787B
:1050B00078B9ED480068808858B9EB480068C07836
:1050C000E94909688872E949096848688047002009
:1050D00010BD0220FCE710B504462CB90120E249BE
:1050E00009680882002010BDE04909688868804787
:1050F000DD4800680C30F6E710B5DB4B1B68D9784B
:10510000D94B1B685879DB4B1B689A69904704465A
:10511000D5480068807AE8B13CB9D3480068007986
:1051200018B9D1480068807808B1022010BD8CB948
:10513000CE490968C8688047CB4800684079CA49A9
:105140000968C872C8480068C078C7490968087308
:105150000020EBE70220E9E710B504462CB9022055
:10516000C14909680882002010BD0020C24908809A
:10517000BD480068007800F07F00E0B9BA490968CE
:10518000487A00F0200129B1BB49097841F00201B9
:10519000B94A117000F0400131B1B749097801F006
:1051A000FE01B54A117005E0B349097841F00101EB
:1051B000B14A11703AE0AC480068007800F07F0016
:1051C000012801D1AC48CFE7A7480068007800F07B
:1051D0007F00022828D1A44A1268517901F00F00FB
:1051E00001F080027AB1A54B03EB8002D2F8002CCB
:1051F00002F03002102A16D19F4A127842F00102C2
:105200009D4B1A700FE09D4B03EB8002D2F8002CEF
:1052100002F44052B2F5805F05D1974A127842F00D
:105220000102954B1A7001E000209DE78F49096843
:1052300008698047904897E72DE9F0478A48006859
:10524000007800F07F08B8F1000F0AD186480068A6
:10525000407A00F0DF008449096848720020BDE808
:10526000F087B8F1020F7DD17F480068408818B9F7
:105270007D480068007908B10220F0E7DFF8F0917E
:1052800079480068477927F080052C467648006801
:10529000407900F0800038B1784901EB8400D0F803
:1052A000000C00F0300606E0744901EB8400D0F8F1
:1052B000000C00F4405699F80000A84204D91EB131
:1052C00069480068807A08B90220C8E707F08000C2
:1052D00080B16A4901EB8400D0F8000C00F0300086
:1052E000102843D1E0B201F031F8E0B2302100F0F3
:1052F000DAFE3BE0614901EB8400D0F8000C00F4D9
:105300004050B0F5805F31D1C4B95D4A92F82C109D
:10531000E0B201F0A6F8594A02EB8401D1F8001C72
:105320004BF68F7201EA020080F4805080F4005046
:10533000524A02EB8401C1F8000C17E0E0B200F021
:10534000EEFF4E4A02EB8401D1F8001C4BF68F723F
:1053500001EA020080F4805080F40050474A02EBDA
:10536000840100E008E0C1F8000C00BF3F49096873
:1053700048698047002072E700BF02206FE72DE9EF
:10538000F04139480068467926F080073C463648A7
:105390000068407900F0800038B1384901EB8400A2
:1053A000D0F8000C00F0300506E0344901EB840031
:1053B000D0F8000C00F440552D480078A04208D9E0
:1053C00029480068408820B91DB127480068807AC4
:1053D00010B90220BDE8F08106F0800080B1274AB4
:1053E00002EB8401D1F8001C48F6BF7201EA02000A
:1053F00080F01000214A02EB8401C1F8000C10E09B
:105400001E4A02EB8401D1F8001C4BF68F7201EAB0
:10541000020080F48050194A02EB8401C1F8000CAC
:1054200000BF12490968886980470020D2E710B59B
:105430000D480068407A40F020000B490968487226
:105440000A490968C8698047002010BD10B50246A6
:1054500005480068438AAAB98888C01A024C2468A3
:105460002082002010BD0000AC000020B800002009
:105470001C010020B0000020A400002000500040CB
:105480002001002008681844ECE72DE9F041FE48AF
:10549000006800F110042688A068C0B1BEB1A588DC
:1054A000B54200D93546A8B2A1688847074620888A
:1054B000401B2080608828446080002000F0A3FF0B
:1054C0008046AAB24146384600F088FD00BF2088D9
:1054D00050B14FF44050ED4908800021084600F0DB
:1054E0009EFF3020EA4908802088A188884204DB9A
:1054F0000320E5490968087218E02088002804DDC7
:105500000520E1490968087210E0208870B906207A
:10551000DD49096808720021DE48006880B2801CFD
:10552000DD4A42F810103020D9490880BDE8F081EA
:105530002DE9F047D448006800F110052E88D248C4
:105540000068077AD6B9042F18D1D448007801280A
:105550000FD10021CF48006880B2801CCE4A42F8AB
:1055600010103020CA49088000BF0020CB490870C5
:1055700003E007271020C649088027E0AC88A64230
:1055800001D8042000E002200746B44200D9344686
:10559000A0B2A96888478046002000F029FF814614
:1055A000A2B24946404600F0FFFCA1B2002000F044
:1055B00036FF2888001B28806888204468803020B7
:1055C000B34908800002B149088000BFAE490968AC
:1055D0000F72BDE8F08770B50226AB4800684478CA
:1055E000A9480068007800F07F0000284AD1092C03
:1055F00003D1FFF752FD064665E0052C14D1A24801
:105600000068C0787F280BDC9F480068807838B934
:105610009D480068808818B99B480068807A08B166
:1056200008256BE000264EE0032C14D19648006854
:10563000C07801280DD194480068808848B9924804
:105640000068407A00F0200018B1FFF7F0FE06462F
:1056500039E0022637E0012C35D18B480068C0784C
:1056600001280DD188480068808848B986480068BC
:10567000407A00F0200018B1FFF7DEFD064622E078
:10568000022620E080480068007800F07F000128B2
:1056900005D10B2C17D1FFF72FFD064613E07A48F2
:1056A0000068007800F07F0002280BD1012C03D1A4
:1056B000FFF7C2FD064606E0032C04D1FFF75FFEAC
:1056C000064600E002264EB1E0B2754A1268516902
:1056D00088470646032E01D109250FE00EB10825A3
:1056E0000CE0062500216B48006880B2801C6A4AE5
:1056F00042F8101030206649088000BF62490968EE
:105700000D7270BD2DE9F84F5F480068457800279D
:10571000BA46062D1BD15C480068007800F07F0077
:10572000002813D1584909688878012803D15C49B9
:105730000968CF690AE0022803D1594909680F6A4C
:1057400004E0032802D1564909684F6A99E0002D08
:1057500067D14D4800684088002862D14A480068F7
:10576000C08802285DD1484800680079002858D1D7
:1057700045480068007800F07F0030B94248006872
:10578000808810B9AFF22F677BE03F48006800784F
:1057900000F07F00012811D13B4909684879404950
:1057A00009688A690021904700286AD13648006854
:1057B000807A002865D0AFF25F6762E03248006807
:1057C000007800F07F0002285BD12F480068407904
:1057D00000F00F062C480068407900F070092A4854
:1057E0000068407900F0800038B12E4901EB860056
:1057F000D0F8000C00F0300806E02A4901EB8600E2
:10580000D0F8000C00F4405827480078B04238D94E
:10581000B9F1000F35D1B8F1000F32D0AFF2C76740
:105820002FE0082D08D118480068007800F07F00AC
:1058300038BBAFF2BB7724E00A2D22D112480068B2
:10584000007800F07F0001281BD10F480068807AA3
:10585000B8B10D480068408898B90B4800680079D5
:1058600078B909480068C08801280AD10649096842
:1058700048790B4909688A690021904708B9AFF255
:10588000A977EFB1004811E0AC000020BC00002077
:10589000BE000020505C004000600040A6000020D8
:1058A000B0000020005000401C0100200068A0F85B
:1058B00012A0AE48006887610020B84700240FE0BE
:1058C000AA4A12685078AA4A1268116988470446A1
:1058D000032C05D10920A54909680872BDE8F88F95
:1058E000A2480068008A4FF6FF71884204D109205F
:1058F0009E4909680872F1E7022C03D09B480068B2
:10590000008A20B90820994909680872E6E7974893
:105910000068007800F08000E0B394480068C08818
:10592000009092480068008A0099884204D98F4903
:1059300000980968088223E08C480068008A8B4937
:105940000968C98888421BDA88480068008A884943
:10595000096891F82C10884203DA00208549087004
:105960000EE082480068008A8149096891F82C108D
:1059700090FBF1F201FB120010B901207D49087083
:105980007B48006890F82C10784800688182FFF707
:10599000CFFD07E0FFE703207449096808720003A0
:1059A0007549088000BF99E710B5744890F82C102D
:1059B000002000F056FD6D480068007A082805D1E7
:1059C00040026D49088010206D49088067480068D2
:1059D000007A092801D1012010BD0020FCE708B59C
:1059E0006848006880B2001D674931F8100080B235
:1059F00001EB400000905D480068007A09282FD034
:105A0000009800785949096808700098401C009077
:105A1000009800785549096848700098401C00902B
:105A20000098801C0090009931F8020B009100F062
:105A3000B9FE4E49096848800098801C0090009982
:105A400031F8020B009100F0ADFE484909688880EA
:105A50000098801C00900098008844490968C8801C
:105A6000012042490968087240480068C08810B99E
:105A7000FFF7B1FD01E0FFF745FEFFF795FF08BD19
:105A800030B50146414B1A78002011E00306404C26
:105A900004EB9353D3F8003C48F68F742340C4B210
:105AA000234304063A4D05EB9454C4F8003C401CD3
:105AB0009042EBD341F08003324C241F236030BD71
:105AC00010B52A480068047A022C01D0042C05D1B4
:105AD000FFF72EFD25480068047A1CE0062C19D13A
