:020000040800F2
:10000000500A002045010008891600085910000810
:100010001D130008110C000845280008000000000E
:100020000000000000000000000000005701000870
:10003000150C0008000000005B010008951E000878
:100040005F0100085F0100085F0100085F01000810
:100050005F0100085F0100085F0100085F01000800
:100060005F0100085F0100085F0100085F010008F0
:100070005F0100085F0100085F0100085F010008E0
:100080005F0100085F0100085F0100085F010008D0
:100090005F0100085F0100085F0100085F010008C0
:1000A0005F0100085F0100085F0100085F010008B0
:1000B0005F0100085F0100085F0100085F010008A0
:1000C0005F0100085F0100085F0100085F01000890
:1000D0005F010008852300085F0100085F01000838
:1000E0005F0100085F0100085F0100085F01000870
:1000F0005F0100085F0100085F0100085F01000860
:100100005F0100085F0100085F0100085F0100084F
:100110005F0100085F0100085F0100085F0100083F
:100120005F0100085F0100085F0100085F0100082F
:10013000DFF80CD000F06EFC00480047FD420008DC
:10014000500A00200648804706480047FEE7FEE7C1
:10015000FEE7FEE7FEE7FEE7FEE7FEE7FEE7FEE777
:10016000991E0008310100082DE9F0410024061B0A
:10017000254671F1000605DA01240027D0EB0700BF
:1001800067EB0101161E73F1000605DA0027D2EBBA
:100190000702012567EB030300F02EFB86460E469F
:1001A00017469C46AC4204D00025D0EB050E65EB0B
:1001B000010624B10020D2EB000760EB030C70466F
:1001C00031463A466346BDE8F081D2B201E000F81C
:1001D000012B491EFBD270470022F6E710B51346EB
:1001E0000A4604461946FFF7F0FF204610BD30B519
:1001F00004460020034600E05B1C934203D2E05C0F
:10020000CD5C401BF8D030BDF0B480EA0102D40FC1
:100210004200B2EB410F02D20246084611464A00A4
:1002200042D0C30DDDB2C1F3C752AD1A202D35DA6D
:10023000C1F3160141F4000204B15242C5F1200697
:1002400002FA06F12A411044B3EBD05F23D0C4B1C7
:10025000012DA0EBC35009DCF0BC4FF0004202EAD4
:10026000C352DBB200F5000000F031BB400000F1EA
:10027000807000EBC350A0F1807040EAD17049005B
:1002800009E0490841EAC071A0EBC35000F5000045
:10029000400800EBC350F0BC00F010BB61420122EB
:1002A00002EB4101001BF6E7F0BC704781F0004112
:1002B000AAE780F00040A7E780EA010210B502F04B
:1002C0000043400022D04A001FD0010E01EB126112
:1002D000C0F35600C2F3560240F4000042F400029C
:1002E000A0FB022000047F39140400D0401C50EA17
:1002F000124001D44000491EC2B20C0604EBD010DB
:10030000401C4008802A02D003E0002010BD20F0ED
:100310000100002900DA0020184310BD30B480EA43
:10032000010202F0004530F0004221F0004013D0FD
:1003300090B1C30DD40DC2F31601C0F31600E41A38
:1003400041F4000140F400027D34914201D3641C69
:1003500000E04900002C02DA30BC002070474FF466
:1003600000000023914201D3891A034340084FEA59
:100370004101F7D151B1914202D14FF0004105E066
:1003800002D24FF0010101E06FF0010103EBC45014
:10039000284430BC00F092BA2DE9FE4F804681EA35
:1003A0000300C00F0C46009021F0004123F00045EF
:1003B000B8EB0200A94105D24046214690461C46B2
:1003C0000B46024623F00040104347D0270DC7F3E9
:1003D0000A00C3F30A510290401A019040286BDAD8
:1003E000C3F3130040F4801B0098924620B1002311
:1003F000D2EB030A63EB0B0B01985946C0F14002A4
:10040000504600F02AFA06460D4650465946019AD3
:1004100000F042FA10EB08006141002487EA115213
:1004200084EAE7731A4340D0009A62B3019A012A22
:100430004FEA075215DC001B61EB02014FF000424E
:1004400002EA0752CDE90042001C41F58011324614
:100450002B4600F079FA03B0BDE8F08F4046214604
:10046000F9E7001B61EB0201001C41F58013001845
:100470005B412018A2F5001747EB030140EAD57055
:10048000B6196D4111E06D084FEA360645EAC075B0
:100490004FEA0752001B61EB0201001C41F580117D
:1004A00049084FEA30000019514132462B4603B04B
:1004B000BDE8F04F00F039BA009801224000002357
:1004C000D0EB020263EBE073009821464FEAE07440
:1004D000B8EB000061EB0401E9E783F000435BE760
:1004E00081F0004158E72DE9FE4F81EA030404F052
:1004F000004421F0004100944FF0000B23F0004332
:1005000050EA01045ED052EA03045BD0C3F30A54FC
:10051000C1F30A552C44A4F2F3340194A0FB025415
:10052000C1F3130141F48011C3F3130343F48013A7
:1005300001FB024400FB034E840A970A44EA8154FB
:1005400047EA8357A4FB076802958D0A05FB0785D8
:100550004FEA932C04FB0C542705029D4FEA0658E2
:1005600047EA1637B5EB08056EEB070C870E920EBF
:1005700047EA811742EA8312A7FB0201B6EB0B019F
:1005800064EB00042B0D43EA0C335E1844EB1C5063
:10059000DA465146E7FB0201C5F313044FEA0B3379
:1005A00043EA14534FEA0432019C43EA0603A4F1E0
:1005B0000C040294009CCDE900B400F0C5F903B02E
:1005C000BDE8F08F00200146F9E72DE9F04D81EA02
:1005D000030404F0004B21F0004514464FF0000ADC
:1005E00023F0004150EA050220D054EA01021DD058
:1005F000C5F30A570246C5F31303C1F31300C1F351
:100600000A5640F4801543F48013A7EB0608101B2C
:10061000D64608F2FD3873EB050002D308F1010855
:1006200001E092185B41B8F1000F03DA00200146A7
:10063000BDE8F08D00204FF48011064684460EE0A0
:10064000171B73EB050705D3121B63EB050306436A
:100650004CEA010C49084FEA300092185B4150EA1D
:100660000107EDD152EA030012D082EA040083EAC6
:100670000501084305D0101BAB4106D2012200231F
:1006800006E000224FF0004302E06FF00102531039
:100690001AEB06004CEB085110EB0A0041EB0B0182
:1006A000BDE8F04D00F041B9C10F80EAE0700844A8
:1006B000CA079623002100F00AB9962300221146AA
:1006C00000F005B90EB5C10F80EAE0700844CA0712
:1006D000002140F233438DE80E000A460B4600F03D
:1006E00033F903B000BD00F0004220F00040C10D1E
:1006F000C0F3160040F400007F2901DA00207047A3
:10070000962903DCC1F19601C84001E09639884082
:10071000002AF4D04042704720F00040C10DC0F3E1
:10072000160040F400007F2901DA00207047962966
:1007300003DCC1F19601C840704796398840704784
:1007400000F0004230F000400AD0C10D01F56071A8
:10075000C0F3160042EA0151C20840071143704736
:10076000002001467047000030B5041E71F10004FE
:1007700004DB4FF00044404264EB0101141E73F1AE
:10078000000405DB1C464FF00043524263EB0403B8
:10079000994208BF904230BD01F0004330B421F0CF
:1007A000004150EA010206D00A0DA2F56072C1F3C1
:1007B0001301002A02DC30BC00207047440F44EAD9
:1007C000C104C100E01830BC00EBC25000F076B8A4
:1007D000002801DBC0F10040002901DBC1F100412C
:1007E00081427047002801DBC0F10040002901DB95
:1007F000C1F10041884270472DE9F05F05460020B5
:1008000092469B4688460646814640241BE0284681
:1008100041464746224600F02FF853465A46C01A32
:10082000914110D311461846224600F016F82D1AB1
:1008300067EB01084F4622460120002100F00DF829
:1008400017EB00094E41201EA4F10104DFDC4846ED
:1008500031462A464346BDE8F09F202A04DB203A71
:1008600000FA02F1002070479140C2F1200320FA03
:1008700003F3194390407047202A04DB203A21FA01
:1008800002F00021704721FA02F3D040C2F12002A9
:100890009140084319467047202A06DBCB17203ABF
:1008A00041FA02F043EAE07306E041FA02F3D04075
:1008B000C2F1200291400843194670470029A8BFA1
:1008C0007047401C490008BF20F00100704710B479
:1008D000B0FA80FC00FA0CF050EA010404BF10BC2E
:1008E000704749B1CCF1200421FA04F411FA0CF15B
:1008F00018BF012121430843A3EB0C01CB1D4FEA94
:1009000000614FEA102042BF002010BC704700EB8E
:10091000C35010440029A4BF10BC7047401C4900BC
:1009200008BF20F0010010BC704710B5141E73F111
:10093000000408DA401C41F1000192185B411A439F
:1009400001D120F0010010BD2DE9F04D92469B46EB
:1009500011B1B1FA81F202E0B0FA80F22032904691
:10096000FFF77BFF04460F4640EA0A0041EA0B010D
:1009700053465A46084313D0114653EA010019D092
:10098000C8F140025046FFF777FF05460E46504635
:1009900059464246FFF761FF084305D0012004E0B5
:1009A00020463946BDE8F08D0020054346EAE07652
:1009B0002C4337430A986305E40AA0EB08000022A1
:1009C000FD0A44EA47540A3002D500200146E9E70F
:1009D000010510196941DDE9084500196941BDE8C3
:1009E000F04DA2E770B521F0004303430CD0C1F3F2
:1009F0000A550024D5EB040564EB0403D617AD1AA1
:100A0000B34102DB0020014670BD201841EB0251CA
:100A100070BD0000064C074D06E0E06840F00103A1
:100A200094E8070098471034AC42F6D3FFF784FBF4
:100A3000E0640008006500082DE9F04D00231A4627
:100A40001B1A8A4103DB00200146BDE8F08DC1F38B
:100A50000A52C1F3130141F480154FF0000BD10786
:100A600002D100186D41521E0027044640F2FF11CA
:100A7000384601EB620A3E468046024600204FF4AB
:100A80008011FFF7F9FEC2197141BB1846EB010056
:100A9000B4EB030C75EB000C04D3E41A65EB000512
:100AA00017460E46241908F101006D41804634288E
:100AB000E3DDF91946EB0600091BA84103D24FF00C
:100AC000FF32134601E0002213461BEB070046EB02
:100AD0000A51BDE8F04DFFF728BF000070B501F0E6
:100AE00063FD4449886B44490968FFF7DFFB04460E
:100AF0004249FFF777FE07D23E49886B4049FFF72E
:100B0000D5FB3C49886311E03A49886B3A4909684A
:100B1000FFF7CCFB04463B49FFF75AFE06D23549A6
:100B2000886B3749FFF770FB3249886331490B46C0
:100B3000D3E903205B69C1E90A034A62086B3249C1
:100B40000968FFF7B3FB2B49C860486B2F49096858
:100B5000FFF7ACFB27490861886B27490968FFF755
:100B6000A5FB244948610A46516AD068FFF79EFBFD
:100B70000646204881683046FFF79EFB04461D4A22
:100B8000D1681068FFF798FB05462146FFF73CFB4C
:100B9000184948650A46916A1069FFF787FB0646BF
:100BA000144881683046FFF787FB0446114A1169F3
:100BB0001068FFF781FB05462146FFF725FB0D492D
:100BC00088650A46D16A5069FFF770FB06460948F6
:100BD00081683046FFF770FB0446064A5169106889
:100BE000FFF76AFB05462146FFF70EFB0149C86582
:100BF00070BD0000EC0100203C0000200000A54377
:100C00000000B4430000A5C33400002038000020D9
:100C100000BFFEE7704701B509E0002000E0401C7E
:100C20004CF250318842FAD30099491E0091009944
:100C30000029F2D108BD00002DE9FC5F00F03AFF69
:100C40005848B0F90000642190FBF1F52846FFF701
:100C50002BFD04465448554A127850F8221020467D
:100C6000FFF7D2FA5049514A127841F822004F4812
:100C70000078401C4D49087008460078472820DB62
:100C8000494800F01BFB0446FFF70EFD4849886306
:100C90000A46516C906BFFF709FB0646FFF750FDC3
:100CA00021F0004104460022424BFFF75DFD02D2D5
:100CB0003F48416C81633E48816B416400203B4961
:100CC00008703D48B0F90000FFF7FCFC00223B4BE8
:100CD000CDE90001FFF707FC80460022384BFFF703
:100CE00074FC04460D4637490868FFF729FD06469F
:100CF00022462B46FFF750FB8246FFF74DFD2C495D
:100D000008630A46D16B106BFFF7D0FA0646FFF76F
:100D100017FD21F0004104460022284BFFF724FD77
:100D200003D22348C06B224908632148006B204945
:100D3000C8632548B0F90000FFF7C4FC064600224E
:100D40001E4BFFF7D0FB804600221D4BFFF73DFCFA
:100D500004460D461B494868FFF7F2FC82462246CE
:100D60002B46FFF719FBCDE90001FFF715FD1049F0
:100D700048630A46116C506BFFF798FA0646FFF776
:100D8000DFFC21F00041044600220C4BFFF7ECFC95
:100D900002D20748016C41630548416B0164BDE81C
:100DA000FC9F0000C6000020DC020020CC000020D8
:100DB000EC01002000002E40C20000200000244072
:100DC00000407F40AC020020C40000202DE9F0412B
:100DD000024600250026002000230024002791F869
:100DE00003C00CF00F0591F803C00CF0100CBCF11F
:100DF000000F03D091F802C04CEA050591F800C03D
:100E0000BCF1000F31D0146800202BE04FF0010C32
:100E10000CFA00F3B1F800C00CEA03069E4220D1A0
:100E200083004FF00F0C0CFA03F7BC4305FA03FCE8
:100E30004CEA040491F803C0BCF1280F06D14FF02E
:100E4000010C0CFA00FCC2F814C00AE091F803C0CF
:100E5000BCF1480F05D14FF0010C0CFA00FCC2F8B0
:100E600010C0401C0828D1D31460B1F800C0BCF1F8
:100E7000FF0F34DD546800202EE000F1080C4FF025
:100E8000010808FA0CF3B1F800C00CEA03069E4210
:100E900021D183004FF00F0C0CFA03F7BC4305FA85
:100EA00003FC4CEA040491F803C0BCF1280F05D1FF
:100EB00000F1080C08FA0CF8C2F8148091F803C08D
:100EC000BCF1480F07D100F1080C4FF0010808FAF7
:100ED0000CF8C2F81080401C0828CED35460BDE83E
:100EE000F0814161704701617047000070B554495D
:100EF0000B46D3E903205B69C1E90A034A62514901
:100F0000B1F90000FFF7D0FB04464D48016B2046C5
:100F1000FFF7CFF94A49C8604A49B1F90200FFF723
:100F2000C3FB04464648416B2046FFF7C2F94449DB
:100F300008614449B1F90400FFF7B6FB0446404894
:100F4000816B2046FFF7B5F93D4948610A46516A71
:100F5000D068FFF7ABF90646394881683046FFF79D
:100F6000ABF90446364AD1681068FFF7A5F9054683
:100F70002146FFF749F9324948650A46916A1069E6
:100F8000FFF794F906462E4881683046FFF794F93A
:100F900004462B4A11691068FFF78EF90546214671
:100FA000FFF732F9264988650A46D16A5069FFF78A
:100FB0007DF90646224881683046FFF77DF90446F0
:100FC0001F4A51691068FFF777F905462146FFF778
:100FD0001BF91B49C8650846406D80F0004508466E
:100FE000C16D2846FFF762F90446FFF77CFB00B2AB
:100FF00015490880124AD16D506DFFF757F9044624
:10100000FFF771FB00B2114908800D48806D80F038
:1010100000450B48C16D2846FFF7F6F80446FFF778
:1010200062FB00B20A490880054AD16D906DFFF756
:10103000EBF80446FFF757FB00B20649088070BD85
:101040004C0200204E000020B8000020BA00002012
:10105000BC000020BE00002000BFFEE710B540200D
:101060000A49086000F0ECF880200849086000F0A8
:10107000E7F840200549091F086000F0E1F840202A
:101080000249086000F0DCF810BD0000140C0140BB
:1010900010B540200A49086000F0D2F880200849C5
:1010A000091F086000F0CCF840200549091F0860BE
:1010B00000F0C6F840200249086000F0C1F810BDF9
:1010C000140C014070B508250024802011490860E7
:1010D00014E06006040E40200E49091D086000F06F
:1010E000AFF840200B49086000F0AAF8094808381A
:1010F000006800F0800008B144F00104281EA5F14A
:101100000101CDB2E5D140200249091D0860204609
:1011100070BD0000100C014070B50446082519E0B0
:1011200040201149086000F08BF804F0800020B1E5
:1011300080200D49091F086002E080200A490860EC
:101140006006040E00F07CF840200749091F086083
:1011500000F076F8281EA5F10101CDB2E0D14020C3
:101160000149086070BD0000140C014010B58020DA
:10117000134908604020086000F062F81048083801
:10118000006808B9012000E0002000F0800008B1EC
:10119000002010BD80200A49091D086000F050F8A9
:1011A00007480838006800F0800008B10020F0E728
:1011B00080200349091D086000F042F80120E8E79B
:1011C000100C014010B540200A49086000F038F8C2
:1011D00080200849086000F033F840200549091FC5
:1011E000086000F02DF880200249091F086000F017
:1011F00027F810BD140C014010B540200F490860BD
:1012000000F01EF880200D49091F086000F018F852
:1012100040200A49091F086000F012F807480C38FE
:10122000006800F0800020B14020044908600020E0
:1012300010BD4020014908600120F9E7140C01406D
:1012400008B50720009002E00098401E009000982A
:101250000028F9D108BD000008B50121202000F0C8
:10126000AFFB0420ADF8000010208DF80300032030
:101270008DF8020069460248FFF7A8FD08BD00008E
:101280000014014010B504210148FFF72CFE10BDE9
:101290000014014010B504210148FFF722FE10BDE3
:1012A00000140140B0F57A7F02DD4FF47A7004E05B
:1012B000B0F5FA7F01DA4FF4FA7070472DE9F0418A
:1012C0000446002621E0002519E06A1C54F822108B
:1012D00054F82500FFF786FA0FD254F82500FFF7DF
:1012E00002FA07B2681C54F8200044F8250038467A
:1012F000FFF7DAF9691C44F82100681C05B2C6F151
:101300004600A842E1DC701C06B2462EDBDBD4F8B6
:101310008C00FFF7E8F900B2BDE8F08100BFFEE7FE
:1013200010B5FFF7B7FF764876490860002048609F
:101330008860754875490860002048607448886076
:1013400000207049086300216E48416381630020DA
:101350006E49086300216D4841638163002069493B
:10136000C863002167480164416400206749C8637D
:10137000002166480164416400206249C860002180
:1013800060480161416100206049C86000215F48F8
:101390000161416100205B49486200215948816236
:1013A000C162002059494862002158488162C162E7
:1013B00000205449886100215248C1610162002027
:1013C0005249886100215148C161016200205149A0
:1013D000088051490880514908805149088000F02F
:1013E00069FB01E000F066FB4E48B0F90000B0F583
:1013F000797FF7DB4FF47A71C80600F067FF4FF48E
:101400007A71C80600F064FF4FF47A71C80600F0E4
:1014100061FF4FF47A71C80600F05EFF01E000F052
:1014200049FB4048B0F90000B0F5FC7FF7DC4FF411
:10143000FA71080700F04AFF4FF4FA71080700F04C
:1014400047FF4FF4FA71080700F044FF4FF4FA71B8
:10145000080700F041FF002403E001F0A5F8601C3C
:10146000C4B2462CF9DB002419E001F09DF82E49A6
:1014700008682E490968FEF7C7FE2B4908604868CE
:101480002B490968FEF7C0FE27494860886829494A
:101490000968FEF7B9FE24498860601CC4B2322C8A
:1014A000E3DB214908682449FEF738FF1E4908603C
:1014B00048682149FEF732FF1B49486088681E4989
:1014C000FEF72CFF18498860084600680D4908633C
:1014D000154841680B484163134881680948816396
:1014E000114800680749C8630F484168054801640E
:1014F0000D48816803484164FFF7C4FE10BD000039
:1015000000002040EC0100209A99193F4C02002075
:101510000AD7233CB8000020BA000020BC000020FD
:10152000BE000020C0000020AC02002034000020DB
:10153000380000203C0000200000484210B504465E
:101540002046FFF7AFFE0446A1B24FF0804000F006
:10155000BFFE10BD10B504462046FFF7A3FE0446AB
:10156000A1B24FF0804000F0B1FE10BD10B50446AE
:101570002046FFF797FE0446A1B24FF0804000F0EE
:10158000A9FE10BD10B504462046FFF78BFE0446A9
:10159000A1B24FF0804000F09FFE10BD10B5FFF7E4
:1015A0004BFBFFF79BFAFFF7A1FC19484078322864
:1015B0000CD14FF496701749088000201649088016
:1015C000164908801649088016490880114909887B
:1015D000114A1288114408B2FFF7BCFF0D4909886F
:1015E0000E4A1288114408B2FFF7A8FF094909887A
:1015F0000B4A1288114408B2FFF7B8FF0549098861
:10160000084A1288114408B2FFF7BCFF10BD000061
:10161000C8000020C0000020B8000020BA00002050
:10162000BC000020BE00002070B5044602F0C0FFE0
:10163000C5B202223721682002F0A8FD0A20FFF778
:10164000EAFAF5B9782003F07FFD782002F09EFEDB
:10165000642003F01FFD01F09BFE0A4802F012FE19
:10166000064602F0EFF840F2731001F039FD6420F5
:1016700002F018F8012C01D103F05AFE012003F00A
:1016800005FC70BD70000020704700001CB511A162
:1016900003C9CDE90001102000F028FB05226946AE
:1016A000302000F005F905226946102000F0AEF860
:1016B000002406E01DF80400A52800D003E0601C0B
:1016C000C4B2052CF6DB00BF052C01D001201CBDE7
:1016D0000020FCE7A5A5A5A5A500000000B587B0E2
:1016E0000121142000F06CF91C20ADF81800102026
:1016F0008DF81B0003208DF81A0006A92848FFF773
:1017000065FB1020ADF818008DF81B0003208DF844
:101710001A0006A92348FFF759FB10212148FFF7BB
:10172000E2FB0220ADF8180048208DF81B000320D2
:101730008DF81A0006A91A48FFF748FB1E21184821
:10174000FFF7D1FB00F06CFA0021174800F0E2FA35
:101750000020ADF804004FF48270ADF806000020C0
:10176000ADF80800ADF80A00ADF80C004FF40070B9
:10177000ADF80E003820ADF810000020ADF81200D2
:101780000720ADF8140001A9074800F0DDFA002099
:101790000649086001200649C1F8900107B000BD64
:1017A000000801400010014000300140900121423A
:1017B0000000224210B5002011490860052211499D
:1017C0002A2000F075F80121212000F08FF8012176
:1017D000222000F08BF80021252000F087F820213E
:1017E000312000F083F80F21262000F07FF80F2130
:1017F000202000F07BF801200349C1F8900110BDC2
:1018000090012142EB630008000021422DE9F041E4
:1018100007460D46164600200A490860384600F083
:101820003BFA8046002405E0FF2000F035FA2855F9
:10183000601CC4B2B442F7DB012002490860404694
:10184000BDE8F0819001224270B5044600200749AE
:101850000860204600F020FAFF2000F01DFA05463F
:1018600001200349C1F89001284670BD9001224231
:101870000000224270B50446102000F037FA07201D
:10188000FFF7E2FF05462946272000F02FF805F074
:10189000400050B1202221466120FFF7B7FFFF2111
:1018A000E22000F023F8002070BD0120FCE70000DA
:1018B0002DE9F04107460C46154600200A4908600C
:1018C000384600F0E9F98046002605E014F8010BDF
:1018D00000F0E2F9701CC6B2AE42F7DB012002490B
:1018E00008604046BDE8F0819001224270B505468F
:1018F0000C46002007490860284600F0CDF906464E
:10190000204600F0C9F901200349C1F89001304692
:1019100070BD0000900122420000224270B50021FB
:1019200000230F22C47804B3154C246804F4E06447
:10193000C4F5E064210AC1F10403CA40447804FA02
:1019400003F184781440214309010E4C0678A15517
:10195000047804F01F050124AC4005786D11AD003A
:1019600005F1E025C5F8004109E0047804F01F0501
:101970000124AC40044D0678761145F8264070BD30
:101980000CED00E000E400E080E100E002490143EA
:10199000024A1160704700000000FA050CED00E0FB
:1019A00029B1064AD2690243044BDA6104E0034AD2
:1019B000D2698243014BDA61704700000010024097
:1019C00029B1064A92690243044B9A6104E0034A32
:1019D00092698243014B9A617047000000100240F7
:1019E00030B500210022002400232D4D6D6805F044
:1019F0000C0121B1042905D0082923D105E0294D86
:101A0000056022E0274D05601FE0254D6D6805F457
:101A10007012234D6D6805F48034022505EB924267
:101A20001CB9214D554305600BE01D4D6D6805F453
:101A300000351DB11C4D5543056002E0194D55435D
:101A4000056002E0174D056000BF00BF144D6D68D2
:101A500005F0F0010909154D6B5C0568DD40456036
:101A60000F4D6D6805F4E061090A104D6B5C456827
:101A7000DD4085600A4D6D6805F46051C90A0B4D63
:101A80006B5C4568DD40C560054D6D6805F44041FF
:101A9000890B074D6B5CC568B5FBF3F5056130BD7F
:101AA0000010024000127A0000093D0014000020DE
:101AB0002400002010B55448FFF7DCFE00287DD13B
:101AC0005148407830384FF47A7148434E4989780C
:101AD000303901EBC10202EB011100EB81014A48F0
:101AE000C078303800EB800001EB400146480079B7
:101AF0003038084400B245490880434840793038BE
:101B00004FF47A71484340498979303901EBC10279
:101B100002EB011100EB81013B48C079303800EB4A
:101B2000800001EB40013848007A3038084400B2A8
:101B3000374908803448407A30384FF47A71484346
:101B40003149897A303901EBC10202EB011100EB16
:101B500081012D48C07A303800EB800001EB400154
:101B60002948007B3038084400B22A4908802648BA
:101B7000407B30384FF47A7148432349897B3039B0
:101B800001EBC10202EB011100EB81011E48C07B99
:101B9000303800EB800001EB40011B48007C3038FE
:101BA000084400B21C4908801849B1F9001040F6F9
:101BB000B832501A00EBD071491000E022E009B2AF
:101BC000124A118014480088A0F2DC5000B2124979
:101BD00008800F480088A0F2DC5000B20C49088051
:101BE0000C480088A0F2DC5000B20A4908800024AA
:101BF00006E0054904F11100085C08490855641C19
:101C0000042CF6DB10BD0000B8020020C00000204C
:101C1000C4000020C6000020C2000020C800002030
:101C200008B5012141F20400FFF7CAFEE020ADF83B
:101C3000000018208DF8030003208DF8020069468B
:101C40001248FFF7C3F8E0211048FFF74CF90020D5
:101C50000F4908804FF4827048800020888002205D
:101C6000C8800120088140024881382088810020F6
:101C7000C88107200882074800F066F8012105485E
:101C800000F048F8FF2000F007F808BD0008014008
:101C9000D80100200030014070B50546002405E061
:101CA000601CC4B2C82C01DD002070BD02210E48AA
:101CB00000F03CF80028F3D029460B4800F042F829
:101CC000002405E0601CC4B2C82C01DD0020ECE754
:101CD0000121054800F02AF80028F3D0024800F05E
:101CE0002EF8C0B2E1E70000003001400849098841
:101CF0004FF6C7721140064A118011460988014308
:101D000011801146098841F04001118070470000A0
:101D10000030014021B1028842F04002028004E01C
:101D200002884FF6BF731A400280704702460020B7
:101D300013890B400BB1012000E0002070470146E1
:101D4000888970478181704710B50022028802F4AB
:101D500041520B884C8823438C882343CC882343EF
:101D60000C8923434C8923438C892343CC89234307
:101D70001A430280838B4FF2FF74234083830B8AC4
:101D8000038210BD10B500F001F810BD0CB50020A5
:101D9000019000903348006840F480303149086079
:101DA00000BF3048006800F4003000900198401CEB
:101DB0000190009818B90198B0F5A06FF1D12948A9
:101DC000006800F4003010B10120009001E0002014
:101DD00000900098012843D12348006840F010008B
:101DE000214908600846006820F0030008600846A2
:101DF000006840F0020008601A48406819494860CD
:101E00000846406848600846406840F48060486082
:101E10000846406820F47C1048600846406840F45A
:101E2000E81048600846006840F08070086000BF15
:101E30000C48006800F000700028F9D0094840689C
:101E400020F00300074948600846406840F002005F
:101E5000486000BF0348406800F00C000828F9D132
:101E60000CBD00000010024000200240042808D1F0
:101E70004FF0E021096941F004014FF0E0221161C7
:101E800007E04FF0E021096921F004014FF0E02262
:101E9000116170477047000010B51348006840F0AA
:101EA00001001149086008464068104908400E4981
:101EB0004860084600680E4908400B49086008461B
:101EC000006820F4802008600846406820F4FE0086
:101ED00048604FF41F008860FFF754FF4FF0006028
:101EE0000449086010BD0000001002400000FFF827
:101EF000FFFFF6FE08ED00E021B1028842F080020B
:101F0000028004E002884FF67F731A400280704717
:101F100021B1028842F00102028004E002884FF6FB
:101F2000FE731A400280704731B1B0F8442042F489
:101F30000042A0F8442005E0B0F84420C2F30E02AD
:101F4000A0F844207047000070B500240022002350
:101F5000058C4FF6FE7635400584028C8388048B11
:101F60004FF68F752C40B51E2C400D882C43751EE6
:101F70002A400D892A434D882A43144DA8420BD08C
:101F8000134DA84208D0134DA84205D0124DA842C7
:101F900002D0124DA84213D14FF6F7752A404D8951
:101FA0002A434FF6FB752A408D882A434FF6FF657A
:101FB0002B404FF6FF552B408D892B43CD892B436A
:101FC00083800483CD888586028470BD002C014007
:101FD00000340140004001400044014000480140FD
:101FE0000A460021018B4FF6F77319401143018314
:101FF0007047000070B5002400220023058C4FF6C6
:10200000EF7635400584028C8388048B48F6FF7593
:102010002C404FF6FF452C400D884FF6FF7606EA20
:1020200005252C434FF6DF752A400D8906EA051574
:102030002A434D8806EA05152A43154DA84202D0C9
:10204000144DA8421DD14FF67F752A404D894FF699
:10205000FF7606EA05152A434FF6BF752A408D889C
:1020600006EA05152A434FF6FF352B404FF2FF7560
:102070002B408D8906EA85052B43CD8906EA850527
:102080002B4383800483CD880587028470BD0000C4
:10209000002C0140003401400A460021018B4FF220
:1020A000FF7319404FF6FF7303EA022319430183BC
:1020B0007047000070B5002400220023058C4FF605
:1020C000FF6635400584028C8388848B4FF68F75BC
:1020D0002C404FF6FC752C400D882C434FF6FF55D5
:1020E0002A400D894FF6FF7606EA05252A434D88DA
:1020F00006EA05252A43154DA84202D0144DA842F0
:102100001DD14FF2FF752A404D894FF6FF7606EA42
:1021100005252A434FF6FF352A408D8806EA052516
:102120002A434EF6FF752B404DF6FF752B408D89E7
:1021300006EA05152B43CD8906EA05152B43838056
:102140008483CD888587028470BD0000002C014007
:10215000003401400A460021818B4FF6F773194085
:10216000114381837047000070B5002200230024D2
:10217000058C4EF6FF7635400584038C8488828B6F
:1021800048F6FF752A404FF6FF452A400D884FF666
:10219000FF7606EA05252A434DF6FF752B400D898B
:1021A00006EA05352B434D8806EA05352B430B4DD2
:1021B000A84202D00A4DA84208D14BF6FF752C4028
:1021C0008D894FF6FF7606EA85152C43848082833D
:1021D000CD88A0F84050038470BD0000002C014061
:1021E000003401400A460021818B4FF2FF731940F1
:1021F0004FF6FF7303EA02231943818370470000FF
:1022000030B589B005460C4601210846FFF7C8FBEA
:1022100001210420FFF7D4FB0F20ADF82000182087
:102220008DF8230003208DF8220008A92648FEF728
:10223000CDFDADF81850ADF814400020ADF81A00EF
:10224000ADF8160005A94FF0804000F049F8702065
:10225000ADF804000120ADF806000020ADF80A003A
:102260000220ADF80C0001A94007FFF76DFE01A99F
:102270004FF08040FFF7BEFE01A94FF08040FFF70E
:1022800019FF01A94FF08040FFF76EFF0121880779
:10229000FFF74AFE0821C806FFF7A2FE0821C8067C
:1022A000FFF7FAFE0821C806FFF754FF0821C80609
:1022B000FFF798FF01218807FFF71EFE012188071D
:1022C000FFF726FE09B030BD000801408186704747
:1022D0000187704781877047A0F840107047000061
:1022E000002202881D4B98420ED01D4B98420BD005
:1022F000B0F1804F08D01B4B984205D01A4B984242
:1023000002D01A4B984204D14FF68F731A404B8873
:102310001A43174B984207D0164B984204D04FF6F9
:10232000FF431A40CB881A4302808B8883850B8831
:1023300003850A4B98420BD0094B984208D00E4BAC
:10234000984205D00D4B984202D00D4B984201D1D6
:102350000B7A03860123838270470000002C014022
:10236000003401400004004000080040000C004020
:1023700000100040001400400040014000440140B3
:102380000048014010B540F225511D4800F04AF8C0
:1023900010B31B4800F002F9C4B21A48008800F4D8
:1023A0000040C8B91748008800F4804060B10A2C8A
:1023B00003D000201349088020E01248008840F430
:1023C00000401049088019E00D2C06D10D48008806
:1023D00040F480400B49088010E00A480088C0F3B0
:1023E0000D0009490C5407480088401C0549088025
:1023F00008460088C72801DD0020088010BD0000C5
:10240000003801402C000020D400002021B1828936
:1024100042F40052828104E082894DF6FF731A4033
:102420008281704770B502460024002300250020F9
:1024300040F66A16B14200D100BFC1F3421501F067
:102440001F03012606FA03F3012D02D196893340BA
:1024500006E0022D02D1168A334001E0968A33400D
:102460000C12012606FA04F41688344013B10CB19C
:10247000012000E0002070BDF0B5034600240026D6
:102480000025002040F66A17B94200D100BF184667
:10249000C1F3421401F01F06012707FA06F5012CCB
:1024A00001D10C3004E0022C01D1103000E01430D6
:1024B0001AB107682F43076002E00768AF4307605F
:1024C000F0BD00002DE9F04786B005460E46002419
:1024D000A24600BFA1460027B08900B100BF2F4629
:1024E0002C8A4CF6FF700440F08804432C82AC899F
:1024F0004EF6F3100440B0883189084371890843CF
:102500000443AC81AC8A4FF6FF400440B0890443D9
:10251000AC8201A8FFF764FA1F48874202D1DDF8B8
:1025200010A001E0DDF80CA0A88900F4004040B143
:102530000AEBCA0000EB0A1031684900B0FBF1F861
:1025400007E00AEBCA0000EB0A1031688900B0FB13
:10255000F1F86420B8FBF0F004012009642101FBCC
:102560001089A88900F4004040B1322000EBC90076
:10257000B0FBF1F000F00700044308E0322000EB6C
:1025800009106421B0FBF1F000F00F0004432C812E
:1025900006B0BDE8F0870000003801400146888899
:1025A000C0F30800704700002DE9F04F8BB096484B
:1025B0009649974B974ACDE900109749974800F004
:1025C000F3FE9248008800F4807000287DD0914985
:1025D0000868FEF769F804464FF09D41FDF79EFE3E
:1025E0008F4908608B494868FEF75EF804464FF053
:1025F0009D41FDF793FE8B49086086498868FEF788
:1026000053F804464FF09D41FDF788FE8649086067
:102610008049C868FEF748F804464FF09D41FDF731
:102620007DFE824908607E4801684FF08040FDF7DA
:1026300043FE06907C4801680698FDF73DFE089031
:10264000784801684FF04040FDF736FE0690774825
:1026500001680698FDF730FE07900899FDF7D4FD54
:102660000990FEF76DF8824600F09AF980464FF027
:1026700066326F4BFDF737FF064600226D4BFDF7C4
:102680008BFE0446FEF788F86B49086066480168CF
:102690004FF08040FDF710FE0390634801680398F7
:1026A000FDF70AFE82465F4801684FF04040FDF7A3
:1026B00003FE03905B4801680398FDF7FDFD834628
:1026C0005146FDF7F3FD814600E09BE04FF07E515F
:1026D000FDF79AFD0446FEF733F8CDE906015048B0
:1026E00001684FF08040FDF7E7FD83464D480168E3
:1026F0005846FDF7E1FD81464B4801684FF08040A8
:10270000FDF7DAFD8346494801685846FDF7D4FDD8
:1027100082464946FDF778FD0446FEF711F8CDE9FB
:102720000401DDE9062300F083FB4FF06632404BE5
:10273000CDE90801FDF7D7FE074600224FF04043E0
:10274000FDF72AFE0546FEF727F83C4908603748A2
:1027500001680068FDF7B0FD069033480168006825
:10276000FDF7AAFD04902F4801680068FDF7A4FD5D
:1027700002902B4801680068FDF79EFD01900299C8
:10278000FDF742FD03900499FDF790FD0590069931
:10279000FDF78CFD0790FDF7D3FF82468B4623485B
:1027A00001681F480068FDF787FD05901E48016815
:1027B0001C480068FDF780FD04900599FDF724FD95
:1027C0004FF080410690FDF777FD0790FDF7B8FFC9
:1027D000064652465B4600F02BFB4FF06632144B28
:1027E000CDE90801FDF77FFE044600221346FDF700
:1027F000D3FD8046FDF7D0FF1149086000200BB0E3
:10280000BDE8F08F0120FAE74C0000205A000020BC
:1028100048000020A8010020540000204E000020A5
:102820006000002064000020680000206C00002090
:1028300066A64C400000F03F340000203800002025
:102840003C00002000BFFEE7014A024900F096B8B4
:10285000593C000828000020490050EAC12018BF58
:1028600004204A0D18BF40F0010040F2FF72B2EBA5
:10287000515F08BF40F00200012808BF05207047E3
:102880002DE9F0414F1E00EBC7010446D1E90001DC
:1028900015461E4637F006020DD02A463346FDF790
:1028A00022FE7F1E04EBC703D3E90023FDF774FD6E
:1028B00037F00602F1D1022F25D0042F13D0062FB6
:1028C00018BFBDE8F0812A463346FDF70CFED4E977
:1028D0000A23FDF761FD2A463346FDF704FED4E9DD
:1028E0000823FDF759FD2A463346FDF7FCFDD4E9E0
:1028F0000623FDF751FD2A463346FDF7F4FDD4E9E2
:102900000423FDF749FD2A463346FDF7ECFDD4E9E3
:102910000223FDF741FD2A463346FDF7E4FDD4E9E5
:102920000023BDE8F041FDF737BD0122FEF75AB89C
:10293000FDF732BD0022134610461146FDF745BE95
:10294000024A00201107FEF74DB8000001FDFFFF0D
:1029500002E008C8121F08C1002AFAD17047704768
:10296000002001E001C1121F002AFBD170470000C6
:102970000149086070470000D00000202DE9F041B7
:1029800016460F460446002503E03946B047641C4E
:102990006D1C20780028F8D12846BDE8F0810000A1
:1029A0002DE9F04D8D4F21F0004A86B005460C46CA
:1029B000BA452ADBAAEB070028430AD0884882459B
:1029C00001DC1AD1CDB106B02846BDE8F04DFFF7C5
:1029D000ACBF844A844B2846FDF785FD07460E466A
:1029E000824A834B28462146FDF77DFD06B03A46D4
:1029F0003346BDE8F04DFDF7CFBC0120FFF7B8FF2F
:102A000006B0BDE8F04DFFF795BF7A48824542DA3F
:102A1000BAF1795F0BDA2846FFF71EFF042808BFDA
:102A2000FFF78EFF284606B02146BDE8F08D2A4606
:102A30000B461046FDF757FD834602466E480E468C
:102A40000B4606217844FFF71BFF5A463346FDF735
:102A50004AFD804669488A465A46334604217844EE
:102A6000FFF70EFF5A463346FDF73DFD00223B4679
:102A7000FDF792FC02460B4640465146FDF7A5FD88
:102A80002A462346FDF72FFD06B02A462346BDE819
:102A9000F04DFDF781BC284624F0004100223D4660
:102AA0003B46FDF71DFD4FF0FF32FDF79BFF06464D
:102AB000024653480F460B4606217844FFF7E0FED6
:102AC00032463B46FDF70FFDCDE900014D48324649
:102AD0003B4604217844FFF7D3FE32463B46FDF7E0
:102AE00002FD00222B46FDF757FC8346029130463B
:102AF000394602F0D7FD804643480D46504517DC65
:102B0000DDE900015A46029BFDF75FFD42462B4678
:102B1000FDF7E9FC42462B46FDF73EFC0122FDF79E
:102B200061FF304A304BFDF7D8FC304A304B4CE067
:102B30004FF0000A52460B464046FDF72DFCCDE90A
:102B4000031052462B4610461946FDF7CCFC324680
:102B50003B46FDF7C5FCDDE90332FDF736FD0646D1
:102B60000F46DDE900015A46029BFDF72EFD834624
:102B70000091012230463946FDF734FF194A1A4BBD
:102B8000FDF7AEFC06460F46012240462946FDF7FA
:102B900029FF5A46009BFDF7A6FC32463B46FDF74F
:102BA0009CFC06460F46012250462946FDF71AFFB7
:102BB0000E4DDFF858802A464346FDF791FC324619
:102BC0003B46FDF78DFC2A464346FDF789FC002C69
:102BD000D8BF81F0004106B0BDE8F08D0000F03FA5
:102BE0000000F07F075C143326A6913C182D445456
:102BF000FB21F93F0000E03FA8390000BE3900008A
:102C000032390000483900003333EF3FFB21E93F00
:102C10002DE9F84F04460D4621F00040009173491C
:102C2000814211DC7249884201DC06D12CB1204678
:102C30002946BDE8F84FFFF778BE6E48002DCCBF9F
:102C40006D496E49BDE8F88F6D49814211DD6D49CE
:102C50008142D8BF4FF0FF366DDD20462946FFF791
:102C6000FBFD042808BFFFF76BFE20462946BDE8A0
:102C7000F88F6549654F25F00045814233DD644991
:102C8000814219DD002632464FF080432046294616
:102C9000FDF782FB80468A46012220462946FDF741
:102CA000A1FE00223B46FDF718FC42465346FDF7C5
:102CB0008CFC04460D463EE001260022BA463B4607
:102CC00020462946FDF768FB80460F460022534602
:102CD00020462946FDF701FC42463B46FDF775FCC0
:102CE00004460D4627E04B4981421BDDDFF828A151
:102CF00002260022534620462946FDF7F4FB002217
:102D00003B46FDF749FB80460F46002253462046CE
:102D10002946FDF7E2FB42463B46FDF756FC0446DA
:102D20000D4608E0032622462B4600203B49FDF7CE
:102D30004CFC04460D4622462B4610461946FDF72C
:102D4000D2FB8B46824602460B46FDF7CCFB07467C
:102D50000246334888460B4606217844FFF790FD2B
:102D600052465B46FDF7BFFB82462E488B463A46ED
:102D7000434605217844FFF783FD3A464346FDF775
:102D8000B2FB02460B46002E504659460CDAFDF7C0
:102D900003FB22462B46FDF7A6FB01B022462B463D
:102DA000BDE8F04FFDF79CBBFDF7F6FA22462B4637
:102DB000FDF799FB1C4A7A4402EBC603D3E90023D2
:102DC000FDF78BFB22462B46FDF787FB174A7A441B
:102DD00002EBC603D3E90023FDF782FB009A002A29
:102DE000B8BF81F00041BDE8F88F0000000010443A
:102DF0000000F07F182D4454FB21F93FFB21F9BF5F
:102E00000000DC3F0000203E0000F33F0000F03FE8
:102E10000000E63F008003400000F83F0000F0BFE4
:102E20004A37000008370000A63600006E36000062
:102E30002DE9F04D9446CCF1000423F000464CEA15
:102E40000404524F46EAD4749A46884621F0004260
:102E5000BC4206D8454240EA050442EAD474BC426A
:102E600004D9BDE8F04D6246FFF762BDAAF14055B6
:102E7000A5F17F6555EA0C040BD0022404EAAA747C
:102E8000434DDFF810E144EAD87452EA000B04D055
:102E90000CE0BDE8F04DFFF7BBBE002C14BF012CC9
:102EA000BDE8F08D022C30D0032C32D056EA0C0B4A
:102EB0000AD0BE4220D1BA4209D126F0804622F083
:102EC00080423346114617E000291ADB25E0DFF87F
:102ED000C8B0FB44002C04BFDBE90001BDE8F08D65
:102EE000012C02BFDBE9000181F00041BDE8F08D5B
:102EF000022C0AD0032C0CD0BA4212D1B8F1000F28
:102F00000BDA23482549BDE8F08D28462449BDE861
:102F1000F08D28467146BDE8F08D1D482149BDE879
:102F2000F08D921B12153C2AC4BF19481D490EDCB6
:102F3000BAF1000FBEBF12F13C0F0020014606DBC4
:102F40006246FDF742FB21F00041FFF761FE002CD5
:102F500008BFBDE8F08D012C04BF81F00041BDE841
:102F6000F08D114A114B022C07D0FDF7B6FA2A4614
:102F7000BDE8F04D0A4BFDF7B0BAFDF7AEFA2A46B0
:102F8000BDE8F04D064BFDF7ABBA00000000F07F46
:102F9000182D4454FB2109C002360000FB21F9BF63
:102FA000FB210940FB21F93F075C143326A6A13C15
:102FB0002DE9F0410446E07800F0C006E07800F02A
:102FC0003F05607800F0010098B1EF102846E9173E
:102FD00005EB5171C910A5EBC101491C01F0FF08B7
:102FE0000B48006820B10A484146026838469047BD
:102FF00000BF607800F0080030B10548406818B1A3
:10300000B011034A516888470020BDE8F0810000F4
:10301000C801002010B56FF00400FEF727FF0A4832
:1030200000680A49B0FBF1F00949087008460078C9
:1030300000EB4001C1EBC0104FF6FF7101EAC00088
:103040000449088010BD00000000002000127A0032
:10305000B4000020B60000200146114A12884A43FD
:103060004FF0E0235A6100229A611A46126942F039
:1030700001021A6100BF4FF0E022106900F0010266
:103080001AB100F48032002AF5D04FF0E022126924
:1030900022F001024FF0E0231A6100229A6170478A
:1030A000B600002038B5044664B120208DF8000039
:1030B00028208DF8010030208DF8020038208DF88E
:1030C000030004E0A32204216846FDF77EF86A4667
:1030D000042140F69E2002F0EBF801F085FC38BD9B
:1030E0003EB5044602208DF80000CA208DF801008C
:1030F000E3208DF8020009208DF803006A460421C0
:10310000682002F0D5F8A3208DF8000004F04000FC
:1031100048B1C0208DF80100C8208DF80200C220FF
:103120008DF8030006E0A3208DF801008DF8020061
:103130008DF8030004F4C07048B1C4208DF8040079
:10314000CC208DF80500C6208DF8060006E0A320EF
:103150008DF804008DF805008DF80600A3208DF889
:1031600007008DF808008DF809006A460A2140F62C
:10317000A72002F09DF804F0030018B120208DF87C
:10318000000002E0D8208DF800006A46012140F6D8
:10319000B62002F08DF804F0200018B1012000F0F4
:1031A000ADF802E0002000F0A9F804F4C07008B304
:1031B00004F4807060B1B2208DF800008B208DF88F
:1031C0000100B6208DF802009B208DF803000BE073
:1031D000B0208DF8000080208DF80100B4208DF81B
:1031E000020090208DF803006A46042140F6A220D8
:1031F00002F05EF804F0010020B3F8208DF8000022
:103200006A4601214FF40B6002F052F8FA210720C0
:1032100000F02CFC072000F0F3FB012000F013FC71
:10322000642000F0F3FC4FF4FA7000F002FDC821B6
:10323000304800F0A3FB282000F0BCFB0A2000F07F
:10324000CCFB08E0D8208DF800006A4601214FF43D
:103250000B6002F02DF804F0020018B1D9208DF8AF
:10326000000002E0D8208DF800006A46012140F2FB
:103270003D7002F01DF804F0040018B1012000F0C8
:1032800069F802E0002000F065F804F0100018B1C1
:103290000120FFF707FF02E00020FFF703FF44F0E3
:1032A00008001549488101F09FFB002012498873EE
:1032B00004F0400018B10846807B801D887304F438
:1032C000C07020B10C48807B801D0B49887304F0CE
:1032D000140020B10848807B10300749887304F03F
:1032E000030020B10448807B001D0349887300203F
:1032F0003EBD000009E3CA02C80100203EB50446F5
:103300006CB10EA1D1E900208968CDE900200291BD
:103310006A4609214FF4976001F0CAFF3EBD0AA238
:10332000D2E900109268CDE9010200916A460921B4
:103330004FF4976001F0BCFFF0E70000B8AAB38D2E
:10334000B4980D355D000000B8AAAAAAB088C3C51C
:10335000C700000038B5044664B1C0208DF80000F5
:10336000C2208DF80100C4208DF80200C6208DF81F
:10337000030004E08B2204216846FCF726FF6A461E
:10338000042140F6982001F093FF01F02DFB38BD99
:1033900010B5C8234FF48062024940F6F63001F0C0
:1033A00099F910BDF05700082DE9F04F8DB0074690
:1033B000884615469946DDE9166B002400203080CA
:1033C0006B49887B5A4605A901F06EFA18B1601E58
:1033D0000DB0BDE8F08F6648807A00F01400002838
:1033E00067D09DF8140000069DF8151040EA0140D2
:1033F0009DF8161040EA01209DF817100843286038
:103400009DF8180000069DF8191040EA01409DF84B
:103410001A1040EA01209DF81B10084368609DF8CF
:103420001C0000069DF81D1040EA01409DF81E108A
:1034300040EA01209DF81F100843A8609DF8200075
:1034400000069DF8211040EA01409DF8221040EA54
:1034500001209DF823100843E86004F11000C4B275
:10346000286800140190686800140290A86800148D
:103470000390E8680014049001984043029901FB0E
:103480000100039901FB0100049901FB010ABAF153
:10349000706F02DBBAF1885F05DD01F0A5FA00204C
:1034A0003080401E94E7B6F9000040F48070308010
:1034B00000BF2F48807A00F0400020B305A9601CAF
:1034C000085C095D40EA012000B2A8F8000005A9E7
:1034D000E01C095C05AAA01C105C41EA002000B2B7
:1034E000A8F8020005A9601D095C201D105C41EAD6
:1034F000002000B2A8F80400A01DC4B2B6F9000074
:1035000040F0080030801A48408900F4C07008B3C9
:1035100005A9601C085C095D40EA012000B2388002
:1035200005A9E01C095C05AAA01C105C41EA00206A
:1035300000B2788005A9601D095C201D105C41EA7D
:10354000002000B2B880A01DC4B2B6F9000040F05F
:10355000700030800648807A00F0030018B105A999
:103560000819FFF725FD484600F084FB00202FE7EF
:10357000C801002070B588B0064601A800F064FFBD
:10358000BDF804000021C90341EA5045C403444882
:10359000007A00F0030056F8200005904048007AB9
:1035A00000F0040010B10598404205903C48007AB4
:1035B000C0F3C10056F8200006903948007A00F0A8
:1035C000200010B10698404206903548007AC0F3BA
:1035D000811056F8200007903148008900F480706F
:1035E00010B10798404207900598C117A0FB04232B
:1035F00001FB043100FB0510810041EA9270059047
:103600000698C117A0FB042301FB043100FB051041
:10361000810041EA927006900798C117A0FB04232D
:1036200001FB043100FB0510810041EA9270079014
:103630000598000E8DF808000598000C8DF809001B
:103640000598000A8DF80A000598C0B28DF80B00A5
:103650000698000E8DF80C000698000C8DF80D00F1
:103660000698000A8DF80E000698C0B28DF80F007B
:103670000798000E8DF810000798000C8DF81100C7
:103680000798000A8DF812000798C0B28DF8130051
:1036900002AA0C214FF4257001F00AFE08B070BD9B
:1036A000C801002030B585B0044616A207CA02AB97
:1036B00007C3C82C03DD4FF0FF3005B030BDC82074
:1036C00090FBF4F0401E85B2280A8DF80000E8B2A5
:1036D0008DF801006A46022140F2162001F0E8FD53
:1036E00010B14FF0FF30E8E702AA0C2140F6C120EC
:1036F00001F0DEFD10B14FF0FF30DEE704488481B9
:103700000020DAE7FEF2ABC4AAF1DFDFBBAFDFDFF8
:10371000C80100201FB504464848007A00F00300A5
:1037200054F8200001904548007A00F0040010B1E0
:103730000198404201904148007AC0F3C10054F81A
:10374000200002903D48007A00F0200010B102985D
:10375000404202903948007AC0F3811054F82000AA
:1037600003903648008900F4807010B103984042FD
:1037700003903349019880FB0101800F40EA8100EA
:1037800001902F49029880FB0110820042EA91705B
:1037900002902B49039880FB0110820042EA91704D
:1037A00003900198000E8DF800000198000C8DF830
:1037B00001000198000A8DF802000198C0B28DF84E
:1037C00003006A4604214FF4747001F071FD18B1D2
:1037D0004FF0FF3004B010BD0298000E8DF80000CD
:1037E0000298000C8DF801000298000A8DF8020082
:1037F0000298C0B28DF803006A4604214FF4757038
:1038000001F056FD10B14FF0FF30E3E70398000ED2
:103810008DF800000398000C8DF801000398000A51
:103820008DF802000398C0B28DF803006A460421A7
:103830004FF4767001F03CFDCCE70000C801002099
:1038400009E3CA0210B586B0044647A00068039099
:1038500046A00068029046A00068019045A000685C
:10386000009004F0030003A9085C8DF8140003A87D
:10387000C4F3C101405C8DF8150003A8C4F38111A5
:10388000405C8DF8160004F0030002A9085C8DF876
:10389000100002A8C4F3C101405C8DF8110002A819
:1038A000C4F38111405C8DF8120005AA032140F297
:1038B000264001F0FDFC18B14FF0FF3006B010BDFE
:1038C00004AA032140F22A4001F0F2FC10B14FF0AB
:1038D000FF30F3E7019805900098049004F004008D
:1038E00058B19DF8140040F001008DF814009DF8C7
:1038F000100040F001008DF8100004F0200058B1D5
:103900009DF8150040F001008DF815009DF811009C
:1039100040F001008DF8110004F4807058B19DF85A
:10392000160040F001008DF816009DF8120040F0DE
:1039300001008DF8120005AA03214FF4886001F000
:10394000B7FC10B14FF0FF30B8E704AA032140F2F2
:10395000314001F0ADFC10B14FF0FF30AEE706484A
:1039600004810020AAE700004CCD6C000CC92C009B
:103970003656760026466600C8010020F8B5054692
:103980000E464FF47A7095FBF0F000FB06F4200E23
:103990008DF80000200C8DF80100200A8DF802003F
:1039A000E0B28DF803006A4604214FF4AE7001F0D6
:1039B0007FFCF8BD38B50446052094FBF0F084B2D6
:1039C00020128DF80000E0B28DF801006A46022155
:1039D0004FF4AD7001F06CFC38BD38B504460520DD
:1039E00094FBF0F084B220128DF80000E0B28DF864
:1039F00001006A4602214FF4AC7001F059FC38BD59
:103A000038B504460020009004F0010020B19DF874
:103A1000000040F03000009004F0020020B19DF85A
:103A2000000040F00C00009004F0040020B19DF86C
:103A3000000040F0030000906A4601214FF4A4709A
:103A400001F036FC38BD38B50446012C01DA0124FA
:103A500002E0042C00DD0424601EC0B200906A461F
:103A6000012140F24F1001F023FC38BD2DE9FC4745
:103A700006460F4606F0070010B1B7F5C86F03DD24
:103A80004FF0FF30BDE8FC873846FCF716FE814654
:103A90005949FCF743FC8046684600F0AFFC9DF8AE
:103AA0000000022806D0042816D0082826D01028A6
:103AB00048D135E04FF08D414046FCF7FDFB814693
:103AC000FCF72AFE84B24D494046FCF7F5FB8146DF
:103AD000FCF722FE85B238E04FF08C414046FCF7FF
:103AE000EBFB8146FCF718FE84B245494046FCF7E3
:103AF000E3FB8146FCF710FE85B226E04FF08B41D8
:103B00004046FCF7D9FB8146FCF706FE84B23D49EE
:103B10004046FCF7D1FB8146FCF7FEFD85B214E080
:103B20004FF08A414046FCF7C7FB8146FCF7F4FDA5
:103B300084B235494046FCF7BFFB8146FCF7ECFDFB
:103B400085B202E04FF0FF309CE700BF20128DF8F5
:103B50000400E0B28DF8050028128DF80600E8B2E6
:103B60008DF8070006F00100A0B101AA02214FF470
:103B7000EA7001F09DFB10B14FF0FF3082E70DF1CC
:103B8000060202214FF4927001F092FB10B14FF047
:103B9000FF3077E706F00200A0B101AA02214FF43E
:103BA000EC7001F085FB10B14FF0FF306AE70DF1CA
:103BB000060202214FF4947001F07AFB10B14FF02D
:103BC000FF305FE706F00400A0B101AA02214FF424
:103BD000EE7001F06DFB10B14FF0FF3052E70DF1C8
:103BE000060202214FF4967001F062FB10B14FF013
:103BF000FF3047E7002045E700004843000040460B
:103C00000000C045000040450000C04438B50446EF
:103C1000052094FBF0F085B228128DF80000E8B280
:103C20008DF801006A4602214FF4EF7001F040FB6D
:103C300038BD38B50446052094FBF0F085B2281253
:103C40008DF80000E8B28DF801006A4602214FF4B9
:103C5000ED7001F02DFB38BD00BF054A128802F05F
:103C60004002002AF9D0C2B2014B1B1D1A807047D6
:103C700000380140704700002DE9F04F87B005463D
:103C80000C46914601208DF8100000208DF811009F
:103C9000FE4A1268517DFD4A5268107804AB022238
:103CA00000F0DDFA20B14FF0FF3007B0BDE8F08F33
:103CB000C820FFF7D1F900208DF81000F34A1268F0
:103CC000517CF24A5268107804AB012200F0C7FA26
:103CD00010B14FF0FF30E8E7EC4A12685179EB4A37
:103CE0005268107804AB012200F0B9FA10B14FF01D
:103CF000FF30DAE7E54A1268517DE44A52681078ED
:103D000004AB012200F0ABFA10B14FF0FF30CCE76A
:103D1000DE4A1268917EDD4A5268107804AB0122B7
:103D200000F09DFA10B14FF0FF30BEE7D74A12689D
:103D30001179D64A5268107804AB012200F08FFA4C
:103D400010B14FF0FF30B0E70C208DF81000CF4AD3
:103D500012681179CD4A5268107804AB012200F044
:103D60007EFA10B14FF0FF309FE70F20FFF774F994
:103D7000C648406B407A8DF81000C44A12689178AA
:103D8000C24A5268107804AB012200F068FA10B100
:103D90004FF0FF3089E7BD48406B007A8DF8100086
:103DA000BA4A12685178B94A5268107804AB0122B5
:103DB00000F055FA10B14FF0FF3076E7B9F1000F7F
:103DC00007D0B248406B807A40F0E0008DF81000D8
:103DD00004E0AE48406B807A8DF81000AB4A126860
:103DE0009179AA4A5268107804AB012200F037FAA0
:103DF00010B14FF0FF3058E7B9F1000F07D0A348DA
:103E0000406BC07A40F0E0008DF8100003E0A0485D
:103E1000C07A8DF810009D4A1268D1799B4A526889
:103E2000107804AB012200F01AFA10B14FF0FF3005
:103E30003BE7B9F1000F02D0C820FFF70DF9402091
:103E40008DF81000914A12681179904A52681078E2
:103E500004AB012200F003FA10B14FF0FF3024E769
:103E600078208DF81000894A12685179874A526883
:103E7000107804AB012200F0F2F910B14FF0FF30DE
:103E800013E783498889FFF7E7F800208DF81000D1
:103E90007E4A126851797D4A5268107804AB01223B
:103EA00000F0DDF910B14FF0FF30FEE6774A1268FE
:103EB000117B764A5268107804AB022200F0BCF9FC
:103EC00010B14FF0FF30F0E69DF811009DF8101092
:103ED00040EA012B0C209BFBF0F0C6B20020A8604A
:103EE00068602860A06060602060824665E0674A84
:103EF0001268517B654A5268107804AB0C2200F0BE
:103F00009BF910B14FF0FF30CFE69DF811009DF8FE
:103F1000101040EA012000B2ADF808009DF813002F
:103F20009DF8121040EA012000B2ADF80A009DF899
:103F300015009DF8141040EA012000B2ADF80C0005
:103F4000BDF90810206808442060BDF90A106068B7
:103F500008446060BDF90C10A0680844A0609DF89A
:103F600017009DF8161040EA012000B2ADF80000DD
:103F70009DF819009DF8181040EA012000B2ADF834
:103F800002009DF81B009DF81A1040EA012000B2C3
:103F9000ADF80400BDF90010286808442860BDF998
:103FA0000210686808446860BDF90410A8680844F5
:103FB000A8600AF1010000F0FF0AB24597DB34481F
:103FC000D0F800C02868C117090441EA104107046D
:103FD000624600233846FCF7C7F832460023CDE995
:103FE0000201FCF7C1F828602948D0F800C06868D1
:103FF000C117090441EA104107046246002338460C
:10400000FCF7B2F832460023CDE90201FCF7ACF828
:1040100068601F48D0F800C0A868C117090441EAC9
:1040200010410704624600233846FCF79DF83246EB
:104030000023CDE90201FCF797F8A8601448D0F8F6
:1040400004C02168C817000440EA11480F04624602
:10405000002338464146FCF787F832460023CDE975
:104060000201FCF781F820600948D0F804C06068BC
:10407000C117090441EA104107046246002338468B
:10408000FCF772F83246002304E000007C000020B8
:10409000C8570008CDE90201FCF766F860601148D6
:1040A000D0F804C0A068C117090441EA1041070410
:1040B000624600233846FCF757F832460023CDE924
:1040C0000201FCF751F8A060A068002804DDA06898
:1040D000A0F58030A06003E0A06800F58030A0600B
:1040E0000020E2E5C857000808B501210820FDF7C7
:1040F00067FCC020ADF8000002208DF802001420FB
:104100008DF8030069460248FCF760FE08BD000018
:10411000000C01402DE9F04105460F4614461E46AD
:10412000FDF724F810B90020BDE8F081002141EA34
:104130004501C8B2FCF7F0FFFDF75EF818B9FDF7CE
:1041400041F80020F0E73846FCF7E6FFFDF754F8A9
:10415000FDF70CF8012101EB4501C8B2FCF7DCFFCB
:10416000FDF74AF80CE0FCF7ADFF3070012C02D1EE
:10417000FCF78EFF01E0FCF771FF761C601EC4B2F5
:10418000002CF0D1FDF71EF80120CDE770B50446F4
:104190000D461646FCF7EAFF08B9002070BD002165
:1041A00041EA4401C8B2FCF7B7FFFDF725F818B99A
:1041B000FDF708F80020F1E72846FCF7ADFFFDF712
:1041C0001BF83046FCF7A8FFFDF716F8FCF7FAFFDE
:1041D0000120E3E72DE9F04105460E4617469846D3
:1041E000FCF7C4FF10B90020BDE8F081002141EACE
:1041F0004501C8B2FCF790FFFCF7FEFF18B9FCF7C9
:10420000E1FF0020F0E73046FCF786FFFCF7F4FF03
:1042100000240BE018F80400FCF77EFFFCF7ECFF2D
:1042200018B9FCF7CFFF0020DEE7641CBC42F1DBCD
:10423000FCF7C8FF0120D7E72DE9F04104460D4601
:1042400016461F463B46324629462046FFF762FF88
:1042500010B10020BDE8F0814FF0FF30FAE72DE902
:10426000F04104460D4616461F463B463246294657
:104270002046FFF7AFFF10B10020BDE8F0814FF0FE
:10428000FF30FAE770B50546284600F00FF80446FF
:10429000E81C00F00BF844EAC00084B2A81D00F04E
:1042A00005F844EA801084B2204670BD014691F9B9
:1042B0000020002A01DD00201EE091F90020002AE4
:1042C00001DA042018E091F90120002A01DD012023
:1042D00012E091F90120002A01DA05200CE091F9A1
:1042E0000220002A01DD022006E091F90220002AC6
:1042F00001DA062000E0072070470000FCF7ACFF61
:10430000FCF7C8FFFEF786FE4FF4A060FDF73EFB0A
:104310004FF4165001F0ECF9FDF7E0F9FFF7E4FE79
:104320008F2142F20F70FDF76BFF0A20FEF794FE1B
:104330000120FDF779F905E00BA0FEF785FAC8200A
:10434000FEF78AFEFDF7A2F90028F5D10BA0FEF7D3
:104350007BFAFDF72FFAFCF7E3FFFCF793FF01E090
:10436000FDF71CF9FCE700004E524632344C303168
:10437000204572726F720D0A000000004E524632E4
:10438000344C3031204F4B0D0A00000070B504460C
:10439000002624F00104184890F8240008B10020F9
:1043A00070BD1548807A10B94FF0FF30F8E7124819
:1043B000057C807A2040104908740846007CA042A1
:1043C00002D04FF0FF3600E0002614B90A48007D05
:1043D00018B1012000F0F4FF02E0002000F0F0FF2F
:1043E0003CB100F001FB20B1034805744FF0FF30F1
:1043F000D6E73046D4E700007C0000200146114893
:10440000407A30B1012807D0022808D003280CD107
:1044100008E0022008700BE00420087008E0082083
:10442000087005E01020087002E04FF0FF30704780
:1044300000BF0448C07C18B108784006000E087020
:104440000020F4E77C00002001461348407A30B198
:10445000012808D002280AD0032810D10BE04FF41D
:10446000804008800EE041F69C7008800AE04FF41E
:104470008050088006E04FF40060088002E04FF0B2
:10448000FF30704700BF0448C07C10B1088840105E
:1044900008800020F5E700007C000020014602486B
:1044A000007C0870002070477C00002001460F4807
:1044B000007A30B1012807D0022809D003280FD193
:1044C0000AE0FA2008800EE04FF4FA7008800AE053
:1044D0004FF47A70088006E04FF4FA60088002E03A
:1044E0000020088000BF00BF002070477C00002033
:1044F00001460E48007A30B1012807D0022808D0C2
:1045000003280CD108E00A4808600BE0094808605D
:1045100008E00948086005E00848086002E04FF03C
:10452000FF30704700BF0020FBE700007C00002048
:10453000000003430000834233330342333383419B
:1045400001461248C07A082817D2DFE800F01704A5
:10455000070A0D101318BC20088013E062200880A1
:1045600010E02A2008800DE0142008800AE00A20CC
:10457000088007E00520088004E000BF00BF00209D
:10458000088000BF00BF0020704700007C000020B2
:104590000146064890F8240010B14FF0FF307047F4
:1045A0000248C08908800020F9E700007C00002054
:1045B0001CB580208DF80000454A1268517D444AA0
:1045C000526810786B460122FFF749FE10B14FF098
:1045D000FF301CBD6420FEF73FFD00208DF8000079
:1045E0003B4A1268517D3A4A526810786B46012264
:1045F000FFF735FE10B14FF0FF30EAE748208DF8A5
:104600000000334A1268117A314A526810786B46BA
:104610000122FFF724FE10B14FF0FF30D9E7FF2150
:104620002B488172FF202A490872FF2128484172D5
:10463000C1724FF6FF71C181FF21017481744FF681
:10464000FF7101850121017380F82210002180F89B
:104650002310417501751630016041608160163884
:1046600080F8241080F82510C1844FF4FA6000F01F
:1046700055FC10B14FF0FF30ABE7022000F0EEFA2E
:1046800010B14FF0FF30A4E72A2000F0C1FC10B1B8
:104690004FF0FF309DE7322000F0FCFC10B14FF0EE
:1046A000FF3096E70020FFF771FE10B14FF0FF30AA
:1046B0008FE700F0CDFE0A2000F0B8FB10B14FF0FC
:1046C000FF3086E7002000F03FFD002081E700007A
:1046D0007C0000202DE9F04385B005460E4690464B
:1046E0009946294890F8250020B14FF0FF3005B0D9
:1046F000BDE8F08316B94FF0FF30F8E7002423E05F
:10470000281B102801DD102000E0281B87B2321979
:104710003946204600F0CCFD10B14FF0FF30E6E7FF
:1047200001AA3946204600F01FF910B14FF0FF30C2
:10473000DDE730193A4601A9FBF759FD10B16FF0DA
:104740000100D4E7E01984B2AC42D9DB4FEA28205B
:104750008DF8000008F0FF008DF801000A4A126889
:10476000517F094A526810786B460222FFF777FDA5
:1047700010B14FF0FF30BAE70121034880F825104F
:10478000A0F826900020B2E77C00002038B504464F
:10479000282C02DD4FF0FF3038BDDCB9002000F0DE
:1047A00001FC00208DF8000007208DF801003D4A33
:1047B0001268517D3B4A526810786B460222FFF71F
:1047C0004EFD10B14FF0FF30E6E70021354801758E
:1047D0000020E1E7012000F0E5FB012C03D10220DD
:1047E0008DF8000033E0022C03D103208DF8000087
:1047F0002DE0052C03DC04208DF8000027E00A2CB6
:1048000003DC05208DF8000021E0142C03DC0620D9
:104810008DF800001BE0282C03DC07208DF8000039
:1048200015E0502C03DC08208DF800000FE0A02CD0
:1048300003DC09208DF8000009E0B4F5A07F03DC5B
:104840000A208DF8000002E00B208DF80000154AC8
:104850001268517A134A526810786B460122FFF7AA
:10486000FEFC10B14FF0FF3096E720208DF80000DD
:104870000C4A1268517D0B4A526810786B4601222F
:10488000FFF7EDFC10B14FF0FF3085E70821054838
:10489000817200210173012101750020FFF776FD6F
:1048A000002079E77C000020F8B504460F46164644
:1048B0002C4890F8240010B94FF0FF30F8BD29487B
:1048C000807A10B94FF0FF30F8E7264A1268117B62
:1048D000244A526810786B460222FFF7ADFC10B1F3
:1048E0004FF0FF30EAE79DF801009DF8001040EA24
:1048F0000125A54203DA00203070401EDEE719488A
:1049000040684088B5EB600F17DD164A1268D17C0D
:10491000144A526810786B460122FFF78DFC10B1E3
:104920004FF0FF30CAE79DF8000000F0100020B102
:1049300000F05AF86FF00100C0E7E2B2094B1B68C3
:10494000597B084B5B6818783B46FFF775FC10B144
:104950004FF0FF30B2E795FBF4F0401E30700020BE
:10496000ACE700007C000020F8B504460D46164672
:1049700016B94FF0FF30F8BD1A48807A10B94FF0E1
:10498000FF30F8E720128DF80000E0B28DF801004A
:104990009DF801002844134949684989884202DD8D
:1049A0004FF0FF30E7E70F4A1268D17E0D4A526898
:1049B00010786B460222FFF752FC10B14FF0FF3027
:1049C000D9E7EAB2074B1B68197E064B5B6818787B
:1049D0003346FFF731FC10B14FF0FF30CBE700203A
:1049E000C9E700007C00002008B57048807A10B943
:1049F0004FF0FF3008BD002000906C4A1268517CD7
:104A00006A4A526810786B460122FFF728FC10B101
:104A10004FF0FF30EEE7654A12685179634A5268F9
:104A200010786B460122FFF71AFC10B14FF0FF30EF
:104A3000E0E75E4A126811795C4A526810786B466A
:104A40000122FFF70CFC10B14FF0FF30D2E75748BE
:104A500090F82400002853D00C200090534A12688C
:104A60001179524A526810786B460122FFF7F7FB22
:104A700010B14FF0FF30BDE73220FEF7EDFAC02055
:104A800000904A48807A00F0010020B19DF80000B3
:104A900040F020000090454A12681179434A52685C
:104AA00010786B460122FFF7DAFB10B14FF0FF30B0
:104AB000A0E73E48407C10B10220009001E00020B9
:104AC00000903A4A1268517C384A526810786B4616
:104AD0000122FFF7C4FB10B14FF0FF308AE700203E
:104AE0000090324A12685179304A526810786B4609
:104AF0000122FFF7B4FB002855D04FF0FF3079E7D3
:104B000004200090294A12681179284A52681078C6
:104B10006B460122FFF7A3FB10B14FF0FF3069E7AE
:104B20002248807C20B92148807A00F0010010B929
:104B30004020009001E0602000901C4A126811792A
:104B40001A4A526810786B460122FFF788FB10B1B1
:104B50004FF0FF304EE73220FEF77EFA1348407CDC
:104B600010B10120009001E0002000900F4A12686F
:104B7000517C0E4A526810786B460122FFF76FFB9A
:104B800010B14FF0FF3035E7084A12685179074AF3
:104B900052681078054B10330122FFF760FB10B10B
:104BA0004FF0FF3026E7002024E700007C000020C3
:104BB0002DE9F04186B007468846274890F8240042
:104BC00020B1002000F062F9012400E0002403A8D5
:104BD000FFF76CFC05A8FFF711FC01A8FFF7B0FC7C
:104BE00002A8FFF7D5FC1C48867A04A8FFF756FCFC
:104BF000002241463846FFF73FF80725FF201649B7
:104C00000872FF2114484172C1724FF6FF71C181D1
:104C1000FF218172017401210173BDF80C0000F0C5
:104C20007DF99DF8140000F019F8BDF8040000F0BB
:104C3000EFF9BDF8080000F02DFA304600F084FAD4
:104C40009DF81000FFF7A2FB14B1012000F01EF93F
:104C5000284606B0BDE8F0817C00002038B5044647
:104C60001E48807A10B94FF0FF3038BD022C06D0B4
:104C7000042C07D0082C08D0102C0CD108E0002000
:104C800000900BE00820009008E01020009005E064
:104C90001820009002E04FF0FF30E6E700BF0F4819
:104CA000407A9DF80010B0EBE10F01D10020DCE765
:104CB0000A4A1268D179094A526810786B46012273
:104CC000FFF7CDFA10B14FF0FF30CEE79DF80000AE
:104CD000C110024841720020C7E700007C0000209C
:104CE00038B504465048807CA04201D1002038BD30
:104CF000002C46D04C4A126811794B4A5268107801
:104D00006B460122FFF798FA10B14FF0FF30EEE743
:104D10009DF8000020F020000090434A12681179AD
:104D2000414A526810786B460122FFF798FA10B199
:104D30004FF0FF30DBE70320FEF78EF902200090F2
:104D4000394890F8220020B19DF8000040F0800022
:104D50000090354890F8230020B19DF8000040F005
:104D600030000090304A1268D17D2F4A5268107886
:104D70006B460122FFF773FA002851D04FF0FF3045
:104D8000B5E7294A12681179274A526810786B46AC
:104D90000122FFF751FA10B14FF0FF30A7E7224888
:104DA000807A00F0010028B19DF8000040F020005A
:104DB000009004E09DF8000020F0200000901A4AC6
:104DC00012681179184A526810786B460122FFF771
:104DD00046FA10B14FF0FF3089E70320FEF73CF9A7
:104DE000114890F8220010B18020009001E00020CE
:104DF00000900D4890F8230020B19DF8000040F08D
:104E000030000090084A1268D17D074A5268107835
:104E10006B460122FFF723FA10B14FF0FF3066E72F
:104E200001488474002062E77C00002038B5044605
:104E30002CB11548C089A04201DB642C02DD4FF083
:104E4000FF3038BD1048C08990FBF4F0401EC0B25E
:104E500000900D4A126892F824100B4A526810789C
:104E60006B460122FFF7FBF910B14FF0FF30E8E786
:104E70000548C1899DF80000401C91FBF0F081B20B
:104E8000014801850020DCE77C00002038B504469D
:104E9000214890F82400A04201D1002038BD24B35D
:104EA0001D4890F8250010B94FF0FF30F6E70020BC
:104EB00000F086FA0020FFF713FF1749C88C00F0B6
:104EC000E9F8002000901449496808786B460122EF
:104ED0002321FFF7C4F901210F4880F82410012095
:104EE00000F06EFAFFF780FD13E0002000F068FA92
:104EF0000948007C00900849496808786B460122FF
:104F00002321FFF7ACF90021034880F82410FFF7B4
:104F10006BFD0020C2E700007C00002038B504468D
:104F20001F48807A10B94FF0FF3038BDFA2C09D0F5
:104F3000B4F5FA7F09D0B4F57A7F09D0B4F5FA6FE9
:104F40000CD108E0002000900BE00820009008E061
:104F50001020009005E01820009002E04FF0FF3094
:104F6000E3E700BF0E48007A9DF80010B0EBE10FB8
:104F700001D10020D9E70A4A12689179084A52689B
:104F800010786B460122FFF76AF910B14FF0FF303D
:104F9000CBE79DF80000C010014908720020C4E76B
:104FA0007C00002038B50446184890F82300A04241
:104FB00001D1002038BD14B13020009001E0002064
:104FC00000901248807C20B19DF8000040F0020063
:104FD00000900E4890F8220020B19DF8000040F0AB
:104FE00080000090094A1268D17D084A5268107802
:104FF0006B460122FFF733F910B14FF0FF30D9E7CC
:10500000024880F823400020D4E700007C00002004
:1050100038B504461E48807A10B94FF0FF3038BDCD
:10502000BC2C02DB0120009015E0622C02DB022088
:10503000009010E02A2C02DB032000900BE0142CDF
:1050400002DB0420009006E00A2C02DB0520009021
:1050500001E0062000900E48C07A9DF800108842BA
:1050600001D10020DBE70A4A12689178084A5268A9
:1050700010786B460122FFF7F2F810B14FF0FF30C5
:10508000CDE79DF800100248C1720020C7E700007C
:105090007C00002038B504462A48807A10B94FF0C9
:1050A000FF3038BD274890F8240010B14FF0FF3092
:1050B000F7E72448007D50B134B1282C04DCE0B27D
:1050C000FFF764FB0020ECE70020FFF75FFB042CF8
:1050D00001DA042404E0B4F57A7F01DD4FF47A7438
:1050E0004FF47A7090FBF4F0401EC0B20090154A65
:1050F00012685178134A526810786B460122FFF704
:10510000AEF810B14FF0FF30CBE79DF80000401C27
:105110004FF47A7191FBF0F081B20A48C1810146E7
:10512000098D642902DA0146098D00E064210846F0
:10513000FFF77CFE0349C9894810FFF769FF00208B
:10514000AFE700007C0000201CB5044604F07000AE
:1051500010B10120019005E014B10020019001E0A0
:1051600040200190514A1268517D504A526810788F
:1051700001AB0122FFF773F820B100214B48817287
:10518000481E1CBD9DF8040020F0400147480173F3
:105190000020019004F0400020B99DF8040040F088
:1051A0000400019004F0200020B99DF8040040F0B4
:1051B0000200019004F0100020B99DF8040040F0B6
:1051C0000100019004F0080020B99DF8040040F0AF
:1051D00038000190354A1268917D344A526810783F
:1051E00001AB0122FFF73BF820B100212F4881726B
:1051F000481EC6E724B1082C02D00020FFF7D2FEDB
:105200002A4A12681179294A526810786B4601229D
:10521000FFF712F810B14FF0FF30B2E704F00100D1
:1052200038B1112001909DF8000040F0200000905E
:1052300006E0102001909DF8000020F02000009072
:105240001A4890F8240028B19DF8000040F0800032
:10525000009004E09DF8000020F080000090134AC8
:10526000126892F82610114A5268107801AB012298
:10527000FEF7F5FF10B14FF0FF3082E70B4A1268DE
:1052800011790A4A526810786B460122FEF7E7FF4F
:1052900010B14FF0FF3074E70448847200210175AB
:1052A0003220FDF7D9FE00206BE700007C000020D3
:1052B000F8B504460D46164616B94FF0FF30F8BD56
:1052C0001A48807A10B94FF0FF30F8E720128DF8B5
:1052D0000000E0B28DF801009DF801002844134958
:1052E00049684989884202DD4FF0FF30E7E70F4AFD
:1052F0001268D17E0D4A526810786B460222FEF782
:10530000AEFF10B14FF0FF30D9E7EAB2074B1B6890
:10531000197E064B5B6818783346FEF7A0FF10B184
:105320004FF0FF30CBE70020C9E700007C000020F1
:1053300070B588B002A905A8FFF73AFC0446072C0F
:105340003CD101A8FFF7D4F80598FBF7ADF9064664
:105350000199FAF7B1FF0546FBF7C5F905900698E4
:10536000FBF7A2F906460199FAF7A6FF0546FBF7F7
:10537000BAF906900798FBF797F906460199FAF7EC
:105380009BFF0546FBF7AFF9079005A8FEF7C2F9AA
:105390006846FFF759F8BDF800100298484302909C
:1053A000BDF80010039848430390BDF8001004981E
:1053B0004843049002A8FEF7DDF800BF08B070BDB6
:1053C00038B50446214890F82400C0B114B1022039
:1053D000009001E0002000901C4A1268517C1B4A9A
:1053E000526810786B460122FEF739FF10B14FF07A
:1053F000FF3038BD9DF800101448417423E0134875
:10540000807A10B94FF0FF30F3E724B10F48407CA9
:1054100008B10020EDE714B10120009001E0002068
:1054200000900A4A1268517C084A526810786B460C
:105430000122FEF714FF10B14FF0FF30D9E79DF8BD
:105440000010024841740020D3E700007C000020D7
:1054500038B50120FFF744FC0C240EE06B46012216
:1054600000212046FEF7E8FE054625B99DF800001C
:10547000482800D103E0601CC4B20F2CEEDD00BF51
:105480000F2C05DD81A0FDF7DFF94FF0FF3038BDAF
:10549000834880F82A4010208DF80000804991F858
:1054A0002A006B4601220A21FEF7D9FE10B14FF007
:1054B000FF30ECE70120FDF7CFFD1F208DF8000045
:1054C000774991F82A006B4601220A21FEF7C7FEB0
:1054D00010B14FF0FF30DAE70120FDF7BDFD704954
:1054E00091F82A006B4603221021FEF7A5FE10B1A9
:1054F0004FF0FF30CBE79DF8000080306849888589
:105500009DF8011080316648C1859DF802108031F8
:10551000018610208DF80000614991F82A006B4641
:1055200001220A21FEF79BFE10B14FF0FF30AEE7DB
:105530000120FDF791FD0020FFF7D2FB40208DF800
:105540000000574A1268917E554A526810786B469F
:105550000122FEF784FE10B14FF0FF3097E750486C
:1055600090F82A0040F080008DF800004C4A126844
:10557000917F4B4A526810786B460122FEF76FFE0E
:1055800010B14FF0FF3082E702208DF80000444A4E
:105590001268D17F424A526810786B460122FEF7AA
:1055A0005EFE10B14FF0FF3071E788208DF80000EB
:1055B0003B4A126892F82010394A526810786B46BC
:1055C0000122FEF74CFE10B14FF0FF305FE7344888
:1055D00090F82A008DF80000314A126892F82110E4
:1055E0002F4A526810786B460122FEF738FE10B140
:1055F0004FF0FF304BE70A208DF80000284A126870
:1056000092F82210264A526810786B460122FEF763
:1056100026FE10B14FF0FF3039E781208DF80000F1
:105620001F4A126892F823101D4A526810786B4680
:105630000122FEF714FE10B14FF0FF3027E71120D2
:105640008DF80000164A126892F82610144A526823
:1056500010786B460122FEF702FE10B14FF0FF30CA
:1056600015E703208DF800000D4A126892F8271004
:105670000B4A526810786B460122FEF7F0FD10B11C
:105680004FF0FF3003E7002001E70000436F6D702B
:10569000617373206E6F7420666F756E642E0A00DE
:1056A0007C0000202DE9F04106460F46FBF7C4F9C7
:1056B000041E0D4618BF0120284320F00040C0F111
:1056C0007F6000F1E040C00F0ED0301C18BF0120F9
:1056D000384320F00040C0F17F6000F1E040C00F8F
:1056E00004BF0120FDF744F920462946BDE8F081BA
:1056F00010B586B00446012144F20400FCF760F9BD
:105700004FF40070ADF8140003208DF81600182037
:105710008DF8170005A91C48FBF758FB4FF4806073
:10572000ADF8140004208DF8170005A91648FBF702
:105730004DFB25208DF8000003208DF801008DF829
:10574000020001208DF803006846FCF7E7F8019499
:105750000020ADF80800ADF80A00ADF80C00ADF877
:1057600010000C20ADF80E0001A90848FCF7AAFEB5
:10577000012240F225510548FCF77EFE0121034835
:10578000FCF744FE06B010BD00080140003801409F
:1057900075191A0C6A231B1C1D1E1F207274433BB3
:1057A0004138393A696B6C376F77246D6E70000041
:1057B00000000000000000000000680000048000FD
:1057C000410100000001000083000000000800000B
:1057D0000001001832000500000020410000D24204
:1057E000295C0F3E9A99993E3333733F295C0F3EF3
:1057F0000000700000000024000000020003000010
:1058000000650054FFEF0000FA80000B12820001D7
:10581000030C30C30E8C8CE914D5400213710F8E2B
:105820003883F8833000F883258EF8833000F883BE
:10583000FFFFFFFF0FFEA9D6240004001A8279A102
:105840000000003CFFFF00000010000038836FA242
:10585000003E03304000000002CAE3093E80000021
:105860002000000000000000400000006000000078
:10587000000C0000000C186E000006920A16C0DF33
:10588000FFFF0256FD8CD377FFE1C496E0C5BEAAA8
:1058900000000000FFFF0B2B00001657000003590B
:1058A0004000000000001DFA00026C1D0000000016
:1058B0003FFFDFEB003EB3B6000D227800002F3C27
:1058C00000000000001942B5000039A20000B365D5
:1058D000D90E9FC91DCF4C3430000000500000008D
:1058E0003BB67AE80064000000C800000000000039
:1058F000100000001000FA921000225E000D229F9E
:105900000001000000320000FF46000063D40000E8
:105910001000000004D6000004CC000004CC0000FD
:1059200000001072000000400000000000000000B5
:1059300000060002000500070000000000640000EF
:1059400000000000000000050005006400200000C9
:105950000000000000000000000040000000030004
:1059600000000032F8980000FF650000830F00007F
:10597000FF9BFC0000000000000000000000000091
:105980000000000000000000000000000000000017
:1059900000000000000000000000000000001000F7
:1059A00040000000000000060000B26A0002000093
:1059B0000001FB830068000000D9FC007CF1FF833C
:1059C0000000000000650000006403E80064002897
:1059D000000000250000000016A0000000001000DC
:1059E00000001000002F0000000001F40000100073
:1059F00000280000FFFF4581FFFFFA720000000051
:105A000000000000004400050005BAC6004778A267
:105A1000000000010000000000000600000000146B
:105A20000000254D002F706D000005AE000C02D067
:105A30000000000000000000000000000000000066
:105A4000001B00000000000000000000000000003B
:105A500000640000000800000000000000000000DA
:105A60000000000000000000000000000000000036
:105A70000000000000000000000000000000000026
:105A80000000000000000000000000000000000016
:105A90000000000000000000000000000000000006
:105AA00000000000000000000000000000000000F6
:105AB000001B00000000000000000000000E000EAF
:105AC00000000AC70004000000000032FFFFFF9C36
:105AD00000000B2B00000002000000010000006429
